:020000040800F2
:10000000286E0020A57E0008117F0008117F0008DF
:10001000117F0008117F0008117F00080000000018
:10002000000000000000000000000000117F000838
:10003000117F000800000000117F000885AC000857
:10004000117F0008117F0008117F0008117F000850
:10005000117F0008117F0008117F0008117F000840
:10006000117F0008117F0008117F0008117F000830
:10007000117F0008117F0008117F0008117F000820
:10008000117F0008117F0008117F0008117F000810
:10009000117F0008117F0008117F0008117F000800
:1000A000117F0008117F0008117F0008117F0008F0
:1000B000117F0008117F0008117F0008117F0008E0
:1000C000117F0008117F0008117F0008117F0008D0
:1000D000117F000855E9000895E90008D5E90008F6
:1000E000117F0008117F0008117F0008117F0008B0
:1000F000117F0008117F0008117F0008117F0008A0
:10010000117F0008117F0008117F0008117F00088F
:10011000117F0008117F0008117F0008A1E100088D
:10012000117F0008117F0008117F0008117F00086F
:10013000117F0008117F0008117F0008117F00085F
:10014000117F0008117F0008117F0008117F00084F
:10015000117F0008117F0008117F000815EA0008D0
:10016000117F0008117F0008117F0008117F00082F
:10017000117F0008C9370108117F0008117F0008AE
:10018000117F0008117F0008117F0008117F00080F
:10019000117F0008117F0008117F0008117F0008FF
:1001A000117F0008117F0008117F000880B483B020
:1001B00000AF78607B68032B06D145F66043C2F23E
:1001C00000034FF001025A6045F67433C2F2000397
:1001D0005B6A0A2B1AD845F67433C2F200035B6AD5
:1001E00003F1FF3140F22002C2F200020B464FEA57
:1001F00083035B184FEA8303D31803F104031A68DF
:1002000045F66043C2F200031A630AE040F220039D
:10021000C2F20003D3F8B82045F66043C2F20003EF
:100220001A6345F66043C2F200034FF000021A6001
:1002300045F66043C2F200034FF00E029A6045F6A5
:100240006043C2F200034FF00B02DA6045F66043F0
:10025000C2F200034FF006021A6145F66043C2F293
:1002600000034FF000025A6145F66043C2F20003FA
:100270004FF000029A6145F66043C2F200034FF06E
:100280000002DA6145F66043C2F200034FF0040257
:100290001A6245F66043C2F200034FF004025A624C
:1002A00045F66043C2F200034FF000029A6245F641
:1002B0006043C2F200034FF00002DA6245F6604389
:1002C000C2F200034FF01E025A6345F66043C2F2C9
:1002D00000034FF000029A6307F10C07BD4680BC93
:1002E000704700BF80B500AF45F66043C2F200031F
:1002F0001B6A012B40F0968045F66043C2F2000372
:10030000DB6903F1FF3245F66043C2F20003DA61B4
:100310004FF0010000F0C6FC45F66043C2F2000356
:10032000DB69002BB8BF5B42072B40F35C8245F6CC
:100330006043C2F200034FF00002DA6145F6604309
:10034000C2F200039B6A002B34D145F66043C2F22F
:100350000003DB6803F1FF3245F66043C2F200039D
:10036000DA6045F66043C2F20003986845F66043E0
:10037000C2F20003DB6803F1FF3140F6A812C2F2BB
:1003800000020B464FEA43035B184FEAC3034FF4E6
:100390003A7101FB00F15B18D31803F108031B68E5
:1003A000012B30D145F66043C2F200034FF0010249
:1003B0009A6228E045F66043C2F200039B6A012B73
:1003C0000ED145F66043C2F200034FF01D02DA6021
:1003D00045F66043C2F200034FF002029A6212E057
:1003E00045F66043C2F200034FF000029A6245F600
:1003F0006043C2F20003DB6803F1FF3245F660435D
:10040000C2F20003DA6000F01BFD45F66043C2F261
:1004100000035A6A45F66043C2F200031A6200F014
:1004200093FDE0E145F66043C2F200031B6A022B34
:1004300040F0968045F66043C2F200039B6903F1E9
:10044000010245F66043C2F200039A614FF00200D8
:1004500000F028FC45F66043C2F200039B69002BC4
:10046000B8BF5B42072B40F3BE8145F66043C2F242
:1004700000034FF000029A6145F66043C2F20003A8
:100480009B6A002B34D145F66043C2F200039B689F
:1004900003F1010245F66043C2F200039A6045F69B
:1004A0006043C2F200039B6803F1010045F660431C
:1004B000C2F20003D96840F6A812C2F200020B464D
:1004C0004FEA43035B184FEAC3034FF43A7101FB51
:1004D00000F15B18D31803F108031B68012B30D11E
:1004E00045F66043C2F200034FF003029A6228E02F
:1004F00045F66043C2F200039B6A032B0ED145F61A
:100500006043C2F200034FF001029A6045F6604377
:10051000C2F200034FF004029A6212E045F6604313
:10052000C2F200034FF000029A6245F66043C2F245
:1005300000039B6803F1010245F66043C2F2000329
:100540009A6000F07DFC45F66043C2F200035A6AEF
:1005500045F66043C2F200031A6200F0F5FC42E186
:1005600045F66043C2F200031B6A032B40F09680FD
:1005700045F66043C2F20003DB6903F1010245F670
:100580006043C2F20003DA614FF0030000F08AFB1F
:1005900045F66043C2F20003DB69002BB8BF5B4243
:1005A000072B40F3208145F66043C2F200034FF071
:1005B0000002DA6145F66043C2F200039B6A002B39
:1005C00034D145F66043C2F20003DB6803F1010257
:1005D00045F66043C2F20003DA6045F66043C2F2BA
:1005E0000003986845F66043C2F20003DB6803F13C
:1005F000010140F6A812C2F200020B464FEA430383
:100600005B184FEAC3034FF43A7101FB00F15B182A
:10061000D31803F108031B68012B30D145F6604362
:10062000C2F200034FF005029A6228E045F66043EB
:10063000C2F200039B6A052B0ED145F66043C2F25D
:1006400000034FF00102DA6045F66043C2F2000396
:100650004FF006029A6212E045F66043C2F20003D0
:100660004FF000029A6245F66043C2F20003DB6875
:1006700003F1010245F66043C2F20003DA6000F0C4
:10068000DFFB45F66043C2F200035A6A45F6604359
:10069000C2F200031A6200F057FCA4E045F6604382
:1006A000C2F200031B6A042B40F0968045F66043BB
:1006B000C2F200039B6903F1FF3245F66043C2F2C8
:1006C00000039A614FF0040000F0ECFA45F6604335
:1006D000C2F200039B69002BB8BF5B42072B40F3BB
:1006E000828045F66043C2F200034FF000029A6137
:1006F00045F66043C2F200039B6A002B34D145F6F5
:100700006043C2F200039B6803F1FF3245F6604389
:10071000C2F200039A6045F66043C2F200039B6890
:1007200003F1FF3045F66043C2F20003D96840F69A
:10073000A812C2F200020B464FEA43035B184FEACD
:10074000C3034FF43A7101FB00F15B18D31803F1B6
:1007500008031B68012B30D145F66043C2F2000349
:100760004FF007029A6228E045F66043C2F20003A8
:100770009B6A072B0ED145F66043C2F200034FF08F
:100780001A029A6045F66043C2F200034FF0080275
:100790009A6212E045F66043C2F200034FF0000295
:1007A0009A6245F66043C2F200039B6803F1FF3290
:1007B00045F66043C2F200039A6000F041FB45F643
:1007C0006043C2F200035A6A45F66043C2F2000376
:1007D0001A6200F0B9FB06E045F66043C2F200037E
:1007E0004FF000025A6280BD80B582B000AF7860E1
:1007F000786800F0C3FE45F66043C2F200031B6A4E
:10080000012B40F08A8045F66043C2F20003DB69A9
:1008100003F1FF3245F66043C2F20003DA614FF0A4
:10082000010000F03FFA45F66043C2F20003DB69C5
:10083000002BB8BF5B42072B40F32F8245F6604385
:10084000C2F200034FF00002DA6145F66043C2F2E3
:1008500000039B6A002B34D145F66043C2F20003CB
:10086000DB6803F1FF3245F66043C2F20003DA6051
:1008700045F66043C2F20003986845F66043C2F251
:100880000003DB6803F1FF3140F6A812C2F2000258
:100890000B464FEA43035B184FEAC3034FF43A7128
:1008A00001FB00F15B18D31803F108031B68012B4F
:1008B00030D145F66043C2F200034FF001029A6264
:1008C00028E045F66043C2F200039B6A012B0ED17B
:1008D00045F66043C2F200034FF01D02DA6045F6B0
:1008E0006043C2F200034FF002029A6212E045F642
:1008F0006043C2F200034FF000029A6245F6604383
:10090000C2F20003DB6803F1FF3245F66043C2F236
:100910000003DA6000F094FABFE145F66043C2F2EA
:1009200000031B6A022B40F08A8045F66043C2F246
:1009300000039B6903F1010245F66043C2F2000324
:100940009A614FF0020000F0ADF945F66043C2F243
:1009500000039B69002BB8BF5B42072B40F39D81CE
:1009600045F66043C2F200034FF000029A6145F67B
:100970006043C2F200039B6A002B34D145F660430A
:10098000C2F200039B6803F1010245F66043C2F224
:1009900000039A6045F66043C2F200039B6803F1CE
:1009A000010045F66043C2F20003D96840F6A81280
:1009B000C2F200020B464FEA43035B184FEAC3033F
:1009C0004FF43A7101FB00F15B18D31803F10803EF
:1009D0001B68012B30D145F66043C2F200034FF093
:1009E00003029A6228E045F66043C2F200039B6A64
:1009F000032B0ED145F66043C2F200034FF0010213
:100A00009A6045F66043C2F200034FF004029A6216
:100A100012E045F66043C2F200034FF000029A6212
:100A200045F66043C2F200039B6803F1010245F6FC
:100A30006043C2F200039A6000F002FA2DE145F62D
:100A40006043C2F200031B6A032B40F08A8045F624
:100A50006043C2F20003DB6903F1010245F6604323
:100A6000C2F20003DA614FF0030000F01BF945F613
:100A70006043C2F20003DB69002BB8BF5B42072B67
:100A800040F30B8145F66043C2F200034FF00002D1
:100A9000DA6145F66043C2F200039B6A002B34D151
:100AA00045F66043C2F20003DB6803F1010245F63C
:100AB0006043C2F20003DA6045F66043C2F200030D
:100AC000986845F66043C2F20003DB6803F1010158
:100AD00040F6A812C2F200020B464FEA43035B182D
:100AE0004FEAC3034FF43A7101FB00F15B18D318CE
:100AF00003F108031B68012B30D145F66043C2F2B5
:100B000000034FF005029A6228E045F66043C2F206
:100B100000039B6A052B0ED145F66043C2F2000329
:100B20004FF00102DA6045F66043C2F200034FF075
:100B300006029A6212E045F66043C2F200034FF0EB
:100B400000029A6245F66043C2F20003DB6803F1DB
:100B5000010245F66043C2F20003DA6000F070F96A
:100B60009BE045F66043C2F200031B6A042B40F091
:100B7000898045F66043C2F200039B6903F1FF32AE
:100B800045F66043C2F200039A614FF0040000F0A2
:100B900089F845F66043C2F200039B69002BB8BF99
:100BA0005B42072B79DD45F66043C2F200034FF04C
:100BB00000029A6145F66043C2F200039B6A002B73
:100BC00034D145F66043C2F200039B6803F1FF3263
:100BD00045F66043C2F200039A6045F66043C2F2F4
:100BE00000039B6803F1FF3045F66043C2F2000347
:100BF000D96840F6A812C2F200020B464FEA43033E
:100C00005B184FEAC3034FF43A7101FB00F15B1824
:100C1000D31803F108031B68012B30D145F660435C
:100C2000C2F200034FF007029A6228E045F66043E3
:100C3000C2F200039B6A072B0ED145F66043C2F255
:100C400000034FF01A029A6045F66043C2F20003B7
:100C50004FF008029A6212E045F66043C2F20003C8
:100C60004FF000029A6245F66043C2F200039B68AF
:100C700003F1FF3245F66043C2F200039A6000F0D0
:100C8000DFF80AE045F66043C2F200034FF00002CD
:100C90005A624FF0000000F005F807F10807BD4662
:100CA00080BD00BF80B483B000AF786045F660437C
:100CB000C2F200035B6903F1010245F66043C2F230
:100CC00000035A6145F66043C2F200035B69072BDB
:100CD00006D945F66043C2F200034FF000025A61A4
:100CE00045F66043C2F200031B68012B07D145F6AD
:100CF0006043C2F200034FF00A021A619AE07B6877
:100D0000012B16D145F66043C2F200035B69032B49
:100D100007D845F66043C2F200034FF001021A61A2
:100D20005CE045F66043C2F200034FF000021A6136
:100D300054E07B68022B16D145F66043C2F20003F3
:100D40005B69032B07D845F66043C2F200034FF0FE
:100D500003021A6142E045F66043C2F200034FF01D
:100D600002021A613AE07B68032B16D145F6604314
:100D7000C2F200035B69032B07D845F66043C2F259
:100D800000034FF005021A6128E045F66043C2F205
:100D900000034FF004021A6120E07B68042B16D197
:100DA00045F66043C2F200035B69032B07D845F6A2
:100DB0006043C2F200034FF007021A610EE045F6ED
:100DC0006043C2F200034FF006021A6106E045F6E6
:100DD0006043C2F200034FF006021A6140F61C1392
:100DE000C2F200031B69012B24D140F61C13C2F28E
:100DF00000035B69142B07D945F66043C2F2000378
:100E00004FF008021A6115E045F66043C2F2000394
:100E10005B69032B07D845F66043C2F200034FF02D
:100E200009021A6106E045F66043C2F200034FF082
:100E300008021A6107F10C07BD4680BC704700BF6D
:100E400080B485B000AF45F66043C2F200039B68F2
:100E5000FB6045F66043C2F20003DB68BB6040F60E
:100E60001C13C2F200031B68012B37D145F6604307
:100E7000C2F200031B68002B30D145F67433C2F276
:100E800000035B687B6045F67433C2F200039B6825
:100E90003B60FA687B689A4220D1BA683B689A4204
:100EA0001CD140F61C13C2F200031B69002B07D1B2
:100EB00045F67433C2F200034FF002021A6006E0F6
:100EC00045F66043C2F200034FF001021A6040F69B
:100ED0005413C2F200034FF003021A6045F6604358
:100EE000C2F200031B68012B28D1FB680E2B25D111
:100EF000BB680E2B22D145F66043C2F200034FF0CF
:100F000000021A6045F66043C2F200034FF000028F
:100F10001A6145F66043C2F200034FF001021A6203
:100F200045F66043C2F200034FF001025A6245F6F3
:100F30006043C2F200034FF00002DA6207F11407C7
:100F4000BD4680BC704700BF80B584B000AF4FF095
:100F50000003FB6045F66043C2F200039B68BB6080
:100F600045F66043C2F20003DB687B6045F66043F0
:100F7000C2F200031B6A002B07D145F66043C2F2A0
:100F800000034FF000025A62F3E245F66043C2F2FA
:100F900000031B6A012B03D17B6803F1FF337B60E5
:100FA00045F66043C2F200031B6A022B03D1BB6803
:100FB00003F10103BB6045F66043C2F200031B6A04
:100FC000032B03D17B6803F101037B6045F660438B
:100FD000C2F200031B6A042B03D1BB6803F1FF3389
:100FE000BB6040F6A812C2F200027968B8680B46EE
:100FF0004FEA43035B184FEAC3034FF43A7101FB16
:1010000000F15B18D31803F10C031B6803F0010314
:10101000002B03D0FB6803F10103FB6040F6A8122C
:10102000C2F200027968B8680B464FEA43035B18C6
:101030004FEAC3034FF43A7101FB00F15B18D31878
:1010400003F10C031B6803F00203002B03D0FB68C1
:1010500003F10103FB6040F6A812C2F200027968B6
:10106000B8680B464FEA43035B184FEAC3034FF4DB
:101070003A7101FB00F15B18D31803F10C031B68F4
:1010800003F00403002B03D0FB6803F10103FB60B2
:1010900040F6A812C2F200027968B8680B464FEA1F
:1010A00043035B184FEAC3034FF43A7101FB00F1AD
:1010B0005B18D31803F10C031B6803F00803002B23
:1010C00003D0FB6803F10103FB6045F66043C2F205
:1010D00000031B68012B19D140F6A812C2F20002CE
:1010E0007968B8680B464FEA43035B184FEAC303BD
:1010F0004FF43A7101FB00F15B18D31803F10803B8
:101100001B68022B02D14FF00203FB60FB68002B2F
:1011100007D145F66043C2F200034FF000025A6265
:1011200027E2FB68012B40F0828040F6A812C2F251
:1011300000027968B8680B464FEA43035B184FEA30
:10114000C3034FF43A7101FB00F15B18D31803F1AC
:101150000C031B6803F00103002B06D045F6604327
:10116000C2F200034FF001025A6240F6A812C2F226
:1011700000027968B8680B464FEA43035B184FEAF0
:10118000C3034FF43A7101FB00F15B18D31803F16C
:101190000C031B6803F00203002B06D045F66043E6
:1011A000C2F200034FF002025A6240F6A812C2F2E5
:1011B00000027968B8680B464FEA43035B184FEAB0
:1011C000C3034FF43A7101FB00F15B18D31803F12C
:1011D0000C031B6803F00403002B06D045F66043A4
:1011E000C2F200034FF003025A6240F6A812C2F2A4
:1011F00000027968B8680B464FEA43035B184FEA70
:10120000C3034FF43A7101FB00F15B18D31803F1EB
:101210000C031B6803F00803002B00F0AA8145F6BD
:101220006043C2F200034FF004025A62A1E145F6A6
:101230006043C2F200039B6B012B40D145F6604333
:10124000C2F200034FF000029A6345F66043C2F217
:1012500000031B6A012B06D145F66043C2F200036E
:101260004FF003025A6245F66043C2F200031B6A64
:10127000022B06D145F66043C2F200034FF0040290
:101280005A6245F66043C2F200031B6A032B06D183
:1012900045F66043C2F200034FF001025A6245F680
:1012A0006043C2F200031B6A042B40F05F8145F6E5
:1012B0006043C2F200034FF002025A6256E145F663
:1012C0006043C2F200031B68012B40F0AC8040F683
:1012D000A812C2F200027968B8680B464FEA4303CD
:1012E0005B184FEAC3034FF43A7101FB00F15B183E
:1012F000D31803F108031B68022B40F0828040F6EC
:10130000A812C2F200027968B8680B464FEA43039C
:101310005B184FEAC3034FF43A7101FB00F15B180D
:10132000D31803F10C031B6803F01003002B06D045
:1013300045F66043C2F200034FF001025A6240F6E4
:10134000A812C2F200027968B8680B464FEA43035C
:101350005B184FEAC3034FF43A7101FB00F15B18CD
:10136000D31803F10C031B6803F02003002B06D0F5
:1013700045F66043C2F200034FF002025A6240F6A3
:10138000A812C2F200027968B8680B464FEA43031C
:101390005B184FEAC3034FF43A7101FB00F15B188D
:1013A000D31803F10C031B6803F04003002B06D095
:1013B00045F66043C2F200034FF003025A6240F662
:1013C000A812C2F200027968B8680B464FEA4303DC
:1013D0005B184FEAC3034FF43A7101FB00F15B184D
:1013E000D31803F10C031B6803F08003002B00F0FB
:1013F000BF8045F66043C2F200034FF004025A6218
:10140000B6E045F66043C2F200031B6A4FF00000ED
:10141000B9687A6803F0C2FB024645F66043C2F23F
:1014200000035A62A4E040F61C13C2F200031B69D9
:10143000012B10D145F66043C2F200031B6AB86865
:1014400079681A4603F03AF9024645F66043C2F25B
:1014500000035A628DE040F61C13C2F200039B6841
:10146000012B71D145F66043C2F200035B68002B8B
:1014700010D145F66043C2F200031B6AB868796870
:101480001A4603F01BF9024645F66043C2F2000318
:101490005A626EE045F66043C2F200035B68012BBE
:1014A00010D145F66043C2F200031B6AB868796840
:1014B0001A4603F0B5F9024645F66043C2F200034E
:1014C0005A6256E045F66043C2F200035B68022BA5
:1014D00010D145F66043C2F200031B6AB868796810
:1014E0001A4603F0C1F9024645F66043C2F2000312
:1014F0005A623EE045F66043C2F200035B68032B8C
:1015000010D145F66043C2F200031B6AB8687968DF
:101510001A4603F049FA024645F66043C2F2000358
:101520005A6226E045F66043C2F200031B6A4FF0A0
:101530000000B9687A6803F0F3FA024645F66043A2
:10154000C2F200035A6214E045F66043C2F200039F
:101550001B6A4FF00000B9687A6803F05DFB024631
:1015600045F66043C2F200035A6202E000BF00E0A9
:1015700000BF07F11007BD4680BD00BF80B584B035
:1015800000AF786045F66043C2F200039B68FB60E1
:1015900045F66043C2F20003DB68BB6045F660437A
:1015A000C2F200031B68012B40F0AC8040F6A81289
:1015B000C2F20002B968F8680B464FEA43035B18B1
:1015C0004FEAC3034FF43A7101FB00F15B18D318E3
:1015D00003F108031B68022B40F0828040F6A8123A
:1015E000C2F20002B968F8680B464FEA43035B1881
:1015F0004FEAC3034FF43A7101FB00F15B18D318B3
:1016000003F10C031B6803F01003002B06D045F612
:101610006043C2F200034FF001021A6240F6A812C2
:10162000C2F20002B968F8680B464FEA43035B1840
:101630004FEAC3034FF43A7101FB00F15B18D31872
:1016400003F10C031B6803F02003002B06D045F6C2
:101650006043C2F200034FF002021A6240F6A81281
:10166000C2F20002B968F8680B464FEA43035B1800
:101670004FEAC3034FF43A7101FB00F15B18D31832
:1016800003F10C031B6803F04003002B06D045F662
:101690006043C2F200034FF003021A6240F6A81240
:1016A000C2F20002B968F8680B464FEA43035B18C0
:1016B0004FEAC3034FF43A7101FB00F15B18D318F2
:1016C00003F10C031B6803F08003002B00F0EC8196
:1016D00045F66043C2F200034FF004021A62E3E1F0
:1016E00045F66043C2F200031B6A4FF00000F96840
:1016F000BA6803F053FA024645F66043C2F20003AB
:101700001A62D1E17B68012B50D145F66043C2F2E9
:1017100000031B6A012B00F0C98145F66043C2F249
:1017200000039B6A002B40F0C38145F66043C2F280
:1017300000031B6A032B07D145F66043C2F2000386
:101740004FF001021A62C0E145F66043C2F20003A5
:101750009B69002B40F0208145F66043C2F20003F4
:10176000DB69002B40F0188140F6A812C2F200029B
:10177000B968F8680B464FEA43035B184FEAC303A6
:101780004FF43A7101FB00F15B18D31803F10C031D
:101790001B6803F00103002B00F0FE8045F6604358
:1017A000C2F200034FF001021A628EE17B68022B45
:1017B00050D145F66043C2F200031B6A022B00F0D1
:1017C000798145F66043C2F200039B6A002B40F02A
:1017D000738145F66043C2F200031B6A042B07D1F4
:1017E00045F66043C2F200034FF002021A626CE158
:1017F00045F66043C2F200039B69002B40F0CC80A9
:1018000045F66043C2F20003DB69002B40F0C48060
:1018100040F6A812C2F20002B968F8680B464FEA17
:1018200043035B184FEAC3034FF43A7101FB00F125
:101830005B18D31803F10C031B6803F00203002BA1
:1018400000F0AA8045F66043C2F200034FF00202A6
:101850001A623AE17B68032B4DD145F66043C2F230
:1018600000031B6A032B00F0298145F66043C2F296
:1018700000039B6A002B40F0238145F66043C2F2CF
:1018800000031B6A012B07D145F66043C2F2000337
:101890004FF003021A6218E145F66043C2F20003FA
:1018A0009B69002B78D145F66043C2F20003DB69E7
:1018B000002B71D140F6A812C2F20002B968F86894
:1018C0000B464FEA43035B184FEAC3034FF43A71E8
:1018D00001FB00F15B18D31803F10C031B6803F044
:1018E0000403002B58D045F66043C2F200034FF0CA
:1018F00003021A62E9E07B68042B4DD145F6604390
:10190000C2F200031B6A042B00F0DC8045F6604342
:10191000C2F200039B6A002B40F0D68045F660437C
:10192000C2F200031B6A022B07D145F66043C2F2E4
:1019300000034FF004021A62C7E045F66043C2F2AA
:1019400000039B69002B27D145F66043C2F20003D8
:10195000DB69002B20D140F6A812C2F20002B96860
:10196000F8680B464FEA43035B184FEAC3034FF492
:101970003A7101FB00F15B18D31803F10C031B68EB
:1019800003F00803002B07D045F66043C2F20003C2
:101990004FF004021A6298E045F66043C2F2000379
:1019A0001B6A012B18D140F6A812C2F20002B968D6
:1019B000F8680B464FEA43035B184FEAC3034FF442
:1019C0003A7101FB00F15B18D31803F10C031B689B
:1019D00003F00103002B5FD045F66043C2F2000321
:1019E0001B6A022B18D140F6A812C2F20002B96895
:1019F000F8680B464FEA43035B184FEAC3034FF402
:101A00003A7101FB00F15B18D31803F10C031B685A
:101A100003F00203002B3FD045F66043C2F20003FF
:101A20001B6A032B18D140F6A812C2F20002B96853
:101A3000F8680B464FEA43035B184FEAC3034FF4C1
:101A40003A7101FB00F15B18D31803F10C031B681A
:101A500003F00403002B1FD045F66043C2F20003DD
:101A60001B6A042B31D140F6A812C2F20002B968F9
:101A7000F8680B464FEA43035B184FEAC3034FF481
:101A80003A7101FB00F15B18D31803F10C031B68DA
:101A900003F00803002B18D145F66043C2F200039F
:101AA0004FF000021A6210E000BF0EE000BF0CE031
:101AB00000BF0AE000BF08E000BF06E000BF04E08E
:101AC00000BF02E000BF00E000BF07F11007BD4605
:101AD00080BD00BF80B483B000AF78607B68032B0B
:101AE00006D145F62043C2F200034FF001025A60CE
:101AF00045F67433C2F200035B6A0A2B1AD845F626
:101B00007433C2F200035B6A03F1FF3140F220023A
:101B1000C2F200020B464FEA83035B184FEA8303CD
:101B2000D31803F10C031A6845F62043C2F20003F0
:101B30001A630AE040F22003C2F20003D3F8C02087
:101B400045F62043C2F200031A6345F62043C2F271
:101B500000034FF000021A6045F62043C2F2000372
:101B60004FF00C029A6045F62043C2F200034FF09A
:101B70000E02DA6045F62043C2F200034FF0020283
:101B80001A6145F62043C2F200034FF000025A6189
:101B900045F62043C2F200036FF002029A6145F657
:101BA0002043C2F200034FF00002DA6145F6204301
:101BB000C2F200034FF002021A6245F62043C2F25D
:101BC00000034FF002025A6245F62043C2F20003BE
:101BD0004FF000029A6245F62043C2F200034FF034
:101BE0000002DA6245F62043C2F200034FF01E0203
:101BF0005A6345F62043C2F200034FF000029A6395
:101C000007F10C07BD4680BC704700BF80B500AF30
:101C100045F62043C2F20003DB6A092B40F28082C2
:101C200045F62043C2F200031B6A012B40F0968068
:101C300045F62043C2F20003DB6903F1FF3245F6AB
:101C40002043C2F20003DA614FF0010000F06AFAAB
:101C500045F62043C2F20003DB69002BB8BF5B42AC
:101C6000072B40F35E8245F62043C2F200034FF09B
:101C70000002DA6145F62043C2F200039B6A002BA2
:101C800034D145F62043C2F20003DB6803F1FF3292
:101C900045F62043C2F20003DA6045F62043C2F263
:101CA0000003986845F62043C2F20003DB6803F1A5
:101CB000FF3140F6A812C2F200020B464FEA43037E
:101CC0005B184FEAC3034FF43A7101FB00F15B1854
:101CD000D31803F108031B68012B30D145F62043CC
:101CE000C2F200034FF001029A6228E045F6204359
:101CF000C2F200039B6A012B0ED145F62043C2F2CB
:101D000000034FF01D02DA6045F62043C2F20003E3
:101D10004FF002029A6212E045F62043C2F200033D
:101D20004FF000029A6245F62043C2F20003DB68DE
:101D300003F1FF3245F62043C2F20003DA6000F0FF
:101D4000B7FA45F62043C2F200035A6A45F620432B
:101D5000C2F200031A6200F03DFBE2E145F62043C7
:101D6000C2F200031B6A022B40F0968045F6204326
:101D7000C2F200039B6903F1010245F62043C2F25F
:101D800000039A614FF0020000F0CCF945F62043C1
:101D9000C2F200039B69002BB8BF5B42072B40F3E4
:101DA000C08145F62043C2F200034FF000029A6161
:101DB00045F62043C2F200039B6A002B34D145F65E
:101DC0002043C2F200039B6803F1010245F6204361
:101DD000C2F200039A6045F62043C2F200039B68FA
:101DE00003F1010045F62043C2F20003D96840F632
:101DF000A812C2F200020B464FEA43035B184FEAF7
:101E0000C3034FF43A7101FB00F15B18D31803F1DF
:101E100008031B68012B30D145F62043C2F20003B2
:101E20004FF003029A6228E045F62043C2F2000315
:101E30009B6A032B0ED145F62043C2F200034FF0FC
:101E400001029A6045F62043C2F200034FF00402FB
:101E50009A6212E045F62043C2F200034FF00002FE
:101E60009A6245F62043C2F200039B6803F1010227
:101E700045F62043C2F200039A6000F019FA45F6D5
:101E80002043C2F200035A6A45F62043C2F200031F
:101E90001A6200F09FFA44E145F62043C2F20003C3
:101EA0001B6A032B40F0968045F62043C2F20003E4
:101EB000DB6903F1010245F62043C2F20003DA6157
:101EC0004FF0030000F02EF945F62043C2F2000364
:101ED000DB69002BB8BF5B42072B40F3228145F63C
:101EE0002043C2F200034FF00002DA6145F62043BE
:101EF000C2F200039B6A002B34D145F62043C2F2A4
:101F00000003DB6803F1010245F62043C2F200033F
:101F1000DA6045F62043C2F20003986845F6204394
:101F2000C2F20003DB6803F1010140F6A812C2F21D
:101F300000020B464FEA43035B184FEAC3034FF41A
:101F40003A7101FB00F15B18D31803F108031B6819
:101F5000012B30D145F62043C2F200034FF00502B9
:101F60009A6228E045F62043C2F200039B6A052BE3
:101F70000ED145F62043C2F200034FF00102DA60B1
:101F800045F62043C2F200034FF006029A6212E0C7
:101F900045F62043C2F200034FF000029A6245F674
:101FA0002043C2F20003DB6803F1010245F620433F
:101FB000C2F20003DA6000F07BF945F62043C2F27A
:101FC00000035A6A45F62043C2F200031A6200F089
:101FD00001FAA6E045F62043C2F200031B6A042B77
:101FE00040F0968045F62043C2F200039B6903F15E
:101FF000FF3245F62043C2F200039A614FF004001D
:1020000000F090F845F62043C2F200039B69002BD4
:10201000B8BF5B42072B40F3848045F62043C2F2F1
:1020200000034FF000029A6145F62043C2F200031C
:102030009B6A002B34D145F62043C2F200039B6813
:1020400003F1FF3245F62043C2F200039A6045F6E1
:102050002043C2F200039B6803F1FF3045F62043A2
:10206000C2F20003D96840F6A812C2F200020B4681
:102070004FEA43035B184FEAC3034FF43A7101FB85
:1020800000F15B18D31803F108031B68012B30D152
:1020900045F62043C2F200034FF007029A6228E09F
:1020A00045F62043C2F200039B6A072B0ED145F68A
:1020B0002043C2F200034FF01A029A6045F6204313
:1020C000C2F200034FF008029A6212E045F6204384
:1020D000C2F200034FF000029A6245F62043C2F2BA
:1020E00000039B6803F1FF3245F62043C2F2000370
:1020F0009A6000F0DDF845F62043C2F200035A6A08
:1021000045F62043C2F200031A6200F063F908E0CA
:1021100045F62043C2F200034FF000025A6200E08D
:1021200000BF80BD80B483B000AF786045F6204327
:10213000C2F200035B6903F1010245F62043C2F2DB
:1021400000035A6145F62043C2F200035B69072B86
:1021500006D945F62043C2F200034FF000025A614F
:1021600045F62043C2F200031B68012B07D145F658
:102170002043C2F200034FF00A021A6192E07B682A
:10218000012B16D145F62043C2F200035B69032BF5
:1021900007D845F62043C2F200034FF001021A614E
:1021A00054E045F62043C2F200034FF000021A61EA
:1021B0004CE07B68022B16D145F62043C2F20003A7
:1021C0005B69032B07D845F62043C2F200034FF0AA
:1021D00003021A613AE045F62043C2F200034FF0D1
:1021E00002021A6132E07B68032B16D145F62043C8
:1021F000C2F200035B69032B07D845F62043C2F205
:1022000000034FF005021A6120E045F62043C2F2B8
:1022100000034FF004021A6118E07B68042B15D10B
:1022200045F62043C2F200035B69032B07D845F64D
:102230002043C2F200034FF007021A6106E045F6A0
:102240002043C2F200034FF006021A6140F61C134D
:10225000C2F200031B69012B24D140F61C13C2F209
:1022600000035B69142B07D945F62043C2F2000333
:102270004FF008021A6115E045F62043C2F2000350
:102280005B69032B07D845F62043C2F200034FF0E9
:1022900009021A6106E045F62043C2F200034FF03E
:1022A00008021A6107F10C07BD4680BC704700BFE9
:1022B00080B485B000AF45F62043C2F200039B68AE
:1022C000FB6045F62043C2F20003DB68BB6040F6CA
:1022D0001C13C2F200031B68012B37D145F62043C3
:1022E000C2F200031B68002B30D145F67433C2F2F2
:1022F00000035B687B6045F67433C2F200039B68A1
:102300003B60FA687B689A4220D1BA683B689A427F
:102310001CD140F61C13C2F200031B69002B07D12D
:1023200045F67433C2F200034FF002021A6006E071
:1023300045F62043C2F200034FF001021A6040F656
:102340005413C2F200034FF003021A6045F6204313
:10235000C2F200031B68012B36D1FB680C2B33D172
:10236000BB680E2B30D145F62043C2F200034FF07C
:1023700000021A6045F62043C2F200034FF0020249
:102380001A6145F62043C2F200036FF002029A611F
:1023900045F62043C2F200034FF00002DA6145F631
:1023A0002043C2F200034FF002021A6245F62043B6
:1023B000C2F200034FF002025A6245F62043C2F215
:1023C00000034FF00002DA6207F11407BD4680BC3B
:1023D000704700BF80B584B000AF4FF00003FB60D2
:1023E00045F62043C2F200039B68BB6045F62043DC
:1023F000C2F20003DB687B6045F62043C2F20003B3
:102400001B6A002B07D145F62043C2F200034FF0B0
:1024100000025A62F3E245F62043C2F200031B6A4F
:10242000012B03D17B6803F1FF337B6045F620432A
:10243000C2F200031B6A022B03D1BB6803F1010344
:10244000BB6045F62043C2F200031B6A032B03D195
:102450007B6803F101037B6045F62043C2F2000371
:102460001B6A042B03D1BB6803F1FF33BB6040F64A
:10247000A812C2F200027968B8680B464FEA43031B
:102480005B184FEAC3034FF43A7101FB00F15B188C
:10249000D31803F10C031B6803F00103002B03D0D6
:1024A000FB6803F10103FB6040F6A812C2F20002D0
:1024B0007968B8680B464FEA43035B184FEAC303D9
:1024C0004FF43A7101FB00F15B18D31803F10C03D0
:1024D0001B6803F00203002B03D0FB6803F1010328
:1024E000FB6040F6A812C2F200027968B8680B4699
:1024F0004FEA43035B184FEAC3034FF43A7101FB01
:1025000000F15B18D31803F10C031B6803F00403FC
:10251000002B03D0FB6803F10103FB6040F6A81217
:10252000C2F200027968B8680B464FEA43035B18B1
:102530004FEAC3034FF43A7101FB00F15B18D31863
:1025400003F10C031B6803F00803002B03D0FB68A6
:1025500003F10103FB6045F62043C2F200031B6850
:10256000012B19D140F6A812C2F200027968B868AE
:102570000B464FEA43035B184FEAC3034FF43A712B
:1025800001FB00F15B18D31803F108031B68022B51
:1025900002D14FF00203FB60FB68002B07D145F628
:1025A0002043C2F200034FF000025A6227E2FB68A8
:1025B000012B40F0828040F6A812C2F20002796836
:1025C000B8680B464FEA43035B184FEAC3034FF466
:1025D0003A7101FB00F15B18D31803F10C031B687F
:1025E00003F00103002B06D045F62043C2F200039E
:1025F0004FF001025A6240F6A812C2F20002796856
:10260000B8680B464FEA43035B184FEAC3034FF425
:102610003A7101FB00F15B18D31803F10C031B683E
:1026200003F00203002B06D045F62043C2F200035C
:102630004FF002025A6240F6A812C2F20002796814
:10264000B8680B464FEA43035B184FEAC3034FF4E5
:102650003A7101FB00F15B18D31803F10C031B68FE
:1026600003F00403002B06D045F62043C2F200031A
:102670004FF003025A6240F6A812C2F200027968D3
:10268000B8680B464FEA43035B184FEAC3034FF4A5
:102690003A7101FB00F15B18D31803F10C031B68BE
:1026A00003F00803002B00F0AA8145F62043C2F294
:1026B00000034FF004025A62A1E145F62043C2F242
:1026C00000039B6B012B40D145F62043C2F200036F
:1026D0004FF000029A6345F62043C2F200031B6AE2
:1026E000012B06D145F62043C2F200034FF003024E
:1026F0005A6245F62043C2F200031B6A022B06D140
:1027000045F62043C2F200034FF004025A6245F638
:102710002043C2F200031B6A032B06D145F6204377
:10272000C2F200034FF001025A6245F62043C2F2A2
:1027300000031B6A042B40F05F8145F62043C2F280
:1027400000034FF002025A6256E145F62043C2F2FE
:1027500000031B68012B40F0AC8040F6A812C2F2C7
:1027600000027968B8680B464FEA43035B184FEAEA
:10277000C3034FF43A7101FB00F15B18D31803F166
:1027800008031B68022B40F0828040F6A812C2F2B8
:1027900000027968B8680B464FEA43035B184FEABA
:1027A000C3034FF43A7101FB00F15B18D31803F136
:1027B0000C031B6803F48053002B06D045F620431E
:1027C000C2F200034FF001025A6240F6A812C2F2B0
:1027D00000027968B8680B464FEA43035B184FEA7A
:1027E000C3034FF43A7101FB00F15B18D31803F1F6
:1027F0000C031B6803F40053002B06D045F620435E
:10280000C2F200034FF002025A6240F6A812C2F26E
:1028100000027968B8680B464FEA43035B184FEA39
:10282000C3034FF43A7101FB00F15B18D31803F1B5
:102830000C031B6803F48043002B06D045F62043AD
:10284000C2F200034FF003025A6240F6A812C2F22D
:1028500000027968B8680B464FEA43035B184FEAF9
:10286000C3034FF43A7101FB00F15B18D31803F175
:102870000C031B6803F40043002B00F0BF8045F6F7
:102880002043C2F200034FF004025A62B6E045F65C
:102890002043C2F200031B6A4FF00200B9687A6855
:1028A00002F07CF9024645F62043C2F200035A6268
:1028B000A4E040F61C13C2F200031B69012B10D1E7
:1028C00045F62043C2F200031B6AB86879681A46CD
:1028D00001F0F4FE024645F62043C2F200035A62BC
:1028E0008DE040F61C13C2F200039B68012B71D1EE
:1028F00045F62043C2F200035B68002B10D145F679
:102900002043C2F200031B6AB86879681A4601F0D6
:10291000D5FE024645F62043C2F200035A626EE03D
:1029200045F62043C2F200035B68012B10D145F647
:102930002043C2F200031B6AB86879681A4601F0A6
:102940006FFF024645F62043C2F200035A6256E08A
:1029500045F62043C2F200035B68022B10D145F616
:102960002043C2F200031B6AB86879681A4601F076
:102970007BFF024645F62043C2F200035A623EE066
:1029800045F62043C2F200035B68032B10D145F6E5
:102990002043C2F200031B6AB86879681A4602F045
:1029A00003F8024645F62043C2F200035A6226E0CD
:1029B00045F62043C2F200031B6A4FF00200B968DB
:1029C0007A6802F0ADF8024645F62043C2F20003F1
:1029D0005A6214E045F62043C2F200031B6A4FF02E
:1029E0000200B9687A6802F017F9024645F62043FA
:1029F000C2F200035A6202E000BF00E000BF07F12C
:102A00001007BD4680BD00BF80B485B000AF7860C0
:102A10004FF00003FB607B68DB684FF0FF325A60C9
:102A20007B68DB686FF080425A61FB6843F00043CB
:102A3000FB60FB6843F40063FB607B68DB68FA685B
:102A40009A6107F11407BD4680BC704780B586B017
:102A500000AF78604FF00003FB744FF000037B6120
:102A60004FF00003FB604FF0030010F071FE7B6835
:102A7000DB681B69FB607B6903F101037B617A6999
:102A80004FF45463C0F203039A4202D94FF000039B
:102A90002AE0FB6803F00043002BE4D04FF0000372
:102AA0007B61FB6843F00103FB607B68DB68FA68CD
:102AB0001A617B68DB681B69FB607B6903F10103BA
:102AC0007B617A694FF45463C0F203039A4205D8DC
:102AD000FB6803F00103002BEBD100E000BF4FF0D7
:102AE000030010F035FEFB7C184607F11807BD46C1
:102AF00080BD00BF80B489B000AFF860B960FA71E2
:102B0000BB804FF00003FB76FB68DB78002B2CD1F9
:102B10004FF000037B614FF00003FB61BB8803F1C2
:102B20000303002B01DA03F103034FEAA3037B61E4
:102B3000FB79FA6803F132034FEA8303D3189B68E9
:102B40003B614FF00003FB610BE0BB681A683B6917
:102B50001A60FB6903F10103FB61BB6803F1040325
:102B6000BB60FA697B699A42EFD3FB7E184607F196
:102B70002407BD4680BC704780B489B000AFF860C0
:102B8000B9601346FB804FF00003FB61FB8803F143
:102B90000303002B01DA03F103034FEAA303BB6134
:102BA000FB68D3F8D0307B614FF00003FB610BE092
:102BB0007B691A68BB681A60FB6903F10103FB615A
:102BC000BB6803F10403BB60FA69BB699A42EFD3A7
:102BD000BB68184607F12407BD4680BC704700BF9C
:102BE00080B487B000AF78600B46FB704FF00003F5
:102BF0003B614FF00003FB737B684FF00002DA701B
:102C00007B684FF001029A707B684FF040029A8017
:102C1000FB78012B17D14FF0A0433B617B684FF04D
:102C20000102DA727B684FF008021A707B684FF07D
:102C300004025A707B684FF4A072DA807B684FF010
:102C400002021A721FE0FB78002B1CD14FF0000328
:102C5000C4F204033B617B684FF00002DA727B68C8
:102C60004FF00C021A707B684FF006025A707B68B6
:102C70004FF4A062DA807B684FF002021A727B6820
:102C80004FF00102DA703A697B68DA603B6903F55C
:102C900000631A467B681A614FF000037B6123E0F2
:102CA0007B694FEA43123B69D31803F510631A4658
:102CB00079687B6903F104034FEA8303CB189A60B8
:102CC0007B694FEA43123B69D31803F530631A4618
:102CD00079687B6903F114034FEA8303CB185A60C8
:102CE0007B6903F101037B617B685B781A467B6932
:102CF0009A42D5D83B6903F580631A467B685A61CE
:102D00003B6903F588631A467B68C3F8CC204FF013
:102D100000037B6113E07B694FEA43123B69D318E0
:102D200003F5A0631A4679687B6903F122034FEA31
:102D30008303CB189A607B6903F101037B617B6895
:102D40001B781A467B699A42E5D84FF000037B61F5
:102D500013E07B694FEA03323B69D31803F58053D4
:102D60001A4679687B6903F132034FEA8303CB1873
:102D70009A607B6903F101037B617B681B781A46CB
:102D80007B699A42E5D83B6903F560631A467B6824
:102D9000C3F80C21FB7B184607F11C07BD4680BC1D
:102DA000704700BF80B586B000AF78604FF0000379
:102DB000FB754FF000033B614FF00003FB604FF0E9
:102DC0000003BB607B681B7A012B48D17B68DB6802
:102DD0009B6BFB60FB686FF31043FB607B685B7A67
:102DE000002B03D0FB6843F48013FB607B68DB6837
:102DF000FA689A634FF000033B617B68DB68DB682D
:102E00003B613B696FF386133B613B6943F480137D
:102E10003B613B696FF396533B613B696FF35143F1
:102E20003B613B696FF3D3433B617B68DB683A6985
:102E3000DA607868FFF70AFE7B68DB78012B40D107
:102E4000BB684FF0050262F34403BB60BB6843F00C
:102E50002003BB607B68DB68BA689A6031E07B68FE
:102E6000DB68DB683B613B6943F040033B617B68A7
:102E7000DB683A69DA607868FFF7E8FD4FF0000335
:102E8000FB60FB6843F48033FB60FB6843F4802302
:102E9000FB60FB6843F40023FB60FB6843F4001312
:102EA000FB607B685B7A002B03D0FB6843F48013E4
:102EB000FB607B68DB68FA689A634FF0140010F0DF
:102EC00073FC7B68DB78012B11D17B68DB689B6826
:102ED000BB60BB684FF0050262F34403BB60BB6894
:102EE00043F02003BB607B68DB68BA689A60FB7DB7
:102EF000184607F11807BD4680BD00BF80B485B0F5
:102F000000AF78604FF00003FB734FF00003BB602D
:102F1000BB6843F00103BB607B68DB687A68D268FA
:102F20009168BA680A439A60FB7B184607F1140758
:102F3000BD4680BC704700BF80B485B000AF7860EC
:102F40004FF00003FB734FF00003BB60BB6843F01E
:102F50000103BB607B68DB687A68D2689168BA68F5
:102F60006FEA02020A409A60FB7B184607F11407D9
:102F7000BD4680BC704700BF80B586B000AF7860AA
:102F800039604FF00003FB744FF000037B614FF09A
:102F90000003FB60FB6843F02003FB603B68DBB28F
:102FA00003F01F03DAB2FB6862F38A13FB607B68ED
:102FB000DB68FA681A617B68DB681B69FB607B6908
:102FC00003F101037B617A694FF45463C0F2030398
:102FD0009A4205D8FB6803F02003002BEBD100E0F8
:102FE00000BF4FF0030010F0B3FBFB7C184607F165
:102FF0001807BD4680BD00BF80B586B000AF7860C1
:103000004FF00003FB744FF000037B614FF00003AF
:10301000FB60FB6843F01003FB607B68DB68FA68C9
:103020001A617B68DB681B69FB607B6903F1010344
:103030007B617A694FF45463C0F203039A4205D866
:10304000FB6803F01003002BEBD100E000BF4FF052
:10305000030010F07DFBFB7C184607F11807BD4606
:1030600080BD00BF80B584B000AF78600B46FB70B8
:103070004FF00003FB737B68DB68DB68BB60BB68F9
:103080006FF35D73BB60BB686FF39E73BB60FB78CF
:10309000012B04D1BB6843F00053BB6006E0FB7812
:1030A000002B03D1BB6843F08043BB607B68DB68C7
:1030B000BA68DA604FF0320010F076FBFB7B1846FE
:1030C00007F11007BD4680BD80B483B000AF7860C3
:1030D0007B68DB685B6903F00103184607F10C07A6
:1030E000BD4680BC704700BF80B582B000AF78603D
:1030F0007868FFF7E9FF0346012B14BF0023012383
:10310000DBB2184607F10807BD4680BD80B485B024
:1031100000AF78604FF00003FB607B68DB685B69A1
:10312000FB607B68DB689B69FA681340FB60FB68A7
:10313000184607F11407BD4680BC704780B588B0BB
:1031400000AF78604FF00003FB764FF00003FB61A7
:103150004FF000037B614FF000033B614FF0000331
:10316000FB60786810F0C2FA7B68D3F80C314FF03E
:1031700000021A607B681B7A012B05D178684FF03A
:10318000000100F013F904E078684FF0010100F04D
:103190000DF9786800F054F97B685B691B68FB6087
:1031A0003B7B6FF382033B737B685B69FA681A6051
:1031B0007B68DB7A002B25D17B68DB684FF40072DB
:1031C0005A627B694FF4007262F30F037B617B6983
:1031D0004FF4807262F31F437B617B68DB687A691E
:1031E0009A623B694FF4407262F30F033B613B69A3
:1031F0004FF4807262F31F433B617B68DB683A697E
:10320000C3F8002178684FF01001FFF7B5FE786829
:10321000FFF7F2FE4FF00003FB6119E07A68FB69EB
:1032200003F122034FEA8303D3189B684FF0FF3268
:103230009A607A68FB6903F122034FEA8303D3188B
:103240009B684FF00002DA60FB6903F10103FB6148
:103250007B681B781A46FB699A42DFD878684FF082
:10326000010100F01DF8786800F05AF8FB7E18465E
:1032700007F12007BD4680BD80B483B000AF786001
:103280007B685B699B6803F00103002B14BF00237C
:103290000123DBB2184607F10C07BD4680BC70471E
:1032A00080B584B000AF78600B46FB704FF0000330
:1032B000FB60FB787868194610F0FAF9786800F03E
:1032C00091F80346FB607B7B03F01003DBB2002B1D
:1032D0000BD1FB78012B08D1FB6843F48053FB60D2
:1032E0007B68D3F8CC30FA681A607B7B03F010035C
:1032F000DBB2002B0BD0FB78002B08D1FB686FF3FF
:103300000C33FB607B68D3F8CC30FA681A604FF05E
:10331000C80010F049FA07F11007BD4680BD00BF94
:1033200080B584B000AF78604FF00003FB734FF0BE
:103330000003BB607B68DB684FF000029A617B682A
:10334000DB684FF0FF325A617868FFF75DFB7B68FE
:10335000DB78002B03D1BB6843F01003BB60BB6874
:1033600043F08073BB60BB6843F00073BB60BB6815
:1033700043F00053BB60BB6843F00803BB60BB680D
:1033800043F40013BB607B68DB687A68D26891699C
:10339000BA686FEA02021140BA680A439A61FB7B7D
:1033A000184607F11007BD4680BD00BF80B485B048
:1033B00000AF78600B46FB707B685B691B68FB6045
:1033C000FB7803F00303DAB23B7B62F301033B7348
:1033D0007B685B69FA681A6007F11407BD4680BC18
:1033E000704700BF80B485B000AF78607B68D3F8C9
:1033F000CC301B68FB60FB686FF38203FB60FB68EB
:103400006FF34103FB60FB686FF3C303FB60FB6872
:103410006FF34513FB60FB68184607F11407BD46C0
:1034200080BC704780B483B000AF78607B685B6914
:103430005B69184607F10C07BD4680BC704700BFAA
:1034400080B584B000AF78607868FFF7CBFF0346A3
:10345000FB60FB6843F48073FB607B68D3F8CC307F
:10346000FA681A604FF00A0010F09EF9FB686FF3DB
:103470000823FB607B68D3F8CC30FA681A604FF001
:10348000140010F091F94FF00103184607F11007EE
:10349000BD4680BD80B489B000AF78600B46FB703C
:1034A0004FF00003FB774FF00003BB614FF00003C8
:1034B0003B614FF000037B614FF00003FB604FF076
:1034C000FF33BB60FB787A6803F122034FEA830382
:1034D000D3189B68BA689A604FF000037B617B68E1
:1034E000DB78012B03D17B6943F004037B61FB781C
:1034F0007A684FEA4313D31803F56A735B7A032B98
:1035000000F28D8001A252F823F000BF1D350008A3
:10351000D73500081D350008893500087B6943F060
:1035200001037B617B6943F008037B617B6943F0A6
:1035300080037B617B6943F480637B617B6943F03B
:1035400010037B61FB787A684FEA4313D31803F5C5
:103550006A739B79002B04D07B6943F480737B6191
:1035600058E07B6943F040037B61FB787A684FEA5F
:103570004313D31803F56A731B7A002B4AD07B6977
:1035800043F020037B6145E07B6943F001037B61ED
:103590007B6943F010037B617B6943F008037B6127
:1035A0007B6943F080037B617B6943F480637B61CB
:1035B0007B6943F400737B61FB787A684FEA4313BD
:1035C000D31803F56A739B79002B25D07B6943F4EC
:1035D00080737B6120E07B6943F001037B617B6941
:1035E00043F400737B617B6943F020037B61FB78CC
:1035F0007A684FEA4313D31803F56A739B79002B5B
:103600000CD07B6943F080037B617B6943F480735A
:103610007B6103E000BF02E000BF00E000BFFB7879
:103620007A6803F122034FEA8303D3189B687A690F
:10363000DA60FB784FF0010202FA03F3BB617B68AA
:103640005B697A6852699169BA690A439A613B6910
:1036500043F000733B617B68DB687A68D2689169EC
:103660003A690A439A614FF00003FB60FB787A687D
:103670004FEA4313D31803F56A731B7903F07F03F2
:10368000DAB2FB6862F39C53FB60FB787A684FEA1E
:103690004313D31803F56A735B7903F00F03DAB2AF
:1036A000FB6862F3CE23FB60FB787A684FEA431332
:1036B000D31803F56A739B7903F00103DAB2FB6850
:1036C00062F3CF33FB60FB787A684FEA4313D31879
:1036D00003F56A73DB79022B14BF00230123DAB2EE
:1036E000FB6862F35143FB60FB787A684FEA43134F
:1036F000D31803F56A735B7A03F00303DAB2FB684D
:1037000062F39343FB60FB787A684FEA4313D31864
:1037100003F56A735B894FEA43534FEA53539AB2F6
:10372000FB6862F30A03FB60FB787A684FEA431395
:10373000D31803F56A735B7A032B03D1FB6843F05C
:103740000053FB60FB787A6803F122034FEA83039E
:10375000D3189B68FA681A60FB7F184607F12407A4
:10376000BD4680BC704700BF80B58CB000AF7860AC
:103770000B46FB704FF0000387F82D304FF000032D
:103780007B854FF480733B854FF000033B624FF025
:1037900000037B624FF00003BB60FB787A684FEA5E
:1037A0004313D31803F56F731B68002B37D0FB78D6
:1037B0007A684FEA4313D31803F56F731A68FB78DE
:1037C00079684FEA4313CB1803F56A735B89D31802
:1037D00003F1FF32FB7879684FEA4313CB1803F506
:1037E0006A735B89B2FBF3F3FB85FA8D3B8D9A42DA
:1037F00018D93B8DFB85FB78FA8DF97878684FEA0C
:103800004111411801F56A71498901FB02F2796899
:103810004FEA4313CB1803F56F731A6002E04FF0C1
:103820000103FB85FB787A684FEA4313D31803F54D
:103830006A739B79002B12D0FB78FA8DF97878683F
:103840004FEA4111411801F56A71498901FB02F201
:1038500079684FEA4313CB1803F56F731A60FB784E
:103860007A684FEA4313D31803F56F731B6823F08C
:103870007F4222F478023B6A62F312033B62FB8DC3
:103880004FEA83534FEA93539AB23B6A62F3DC43A5
:103890003B62FB787A6803F115034FEA4313D318B0
:1038A00003F588731B7903F00303DAB23B6A62F312
:1038B0005E733B62FB787A6803F122034FEA83036D
:1038C000D3189B683A6A1A617B68DB78012B12D1A6
:1038D000FB787A6803F122034FEA8303D3189B68CD
:1038E000FA78796802F115024FEA42128A1802F555
:1038F0008C7212685A61FB787A6803F122034FEAEE
:103900008303D3189B681B687B627868FFF7B4FC5D
:10391000034603F00103DAB27B6A62F35D737B62F4
:103920007B6A43F000437B627B6A6FF39E737B622A
:10393000FB787A6803F122034FEA8303D3189B686C
:103940007A6A1A607B68DB78002B40F08980FB780C
:103950007A684FEA4313D31803F56A739B79002BF7
:103960007ED1FB787A684FEA4313D31803F56F735F
:103970001B68002B74D0FB787A684FEA4313D31886
:1039800003F56A735B7A032B4ED801A252F823F039
:10399000A1390008E5390008A1390008E539000817
:1039A0007B68DB68DB6A7B61FB787A684FEA4313EC
:1039B000D31803F56F731B6803F103034FEA9303F6
:1039C0007B85BB8A7A8D9A4230D9BB6843F020034D
:1039D000BB607B68DB687A68D2689169BA680A4321
:1039E0009A6123E07B685B691B69FB60FB787A68FE
:1039F0004FEA4313D31803F56F731B6803F10303F6
:103A00004FEA93037B85BB897A8D9A4210D9BB68B4
:103A100043F08063BB607B68DB687A68D268916939
:103A2000BA680A439A6103E000BF02E000BF00E009
:103A300000BFFB787A6803F115034FEA4313D318EC
:103A400003F58C731968FB787A684FEA4313D3182F
:103A500003F56F731B689BB2FA787868FFF74AF832
:103A600097F82D30184607F13007BD4680BD00BFDE
:103A700080B48BB000AF78600B46FB704FF0000352
:103A800087F827304FF00003BB614FF000033B6124
:103A9000FB787A6803F122034FEA8303D3189B680B
:103AA0001B68FB60FB6843F00043FB60FB6843F06E
:103AB0008043FB60BB7B03F00C03DBB2002B05D023
:103AC000BB7B03F00C03DBB2082B0BD17B68DB68FC
:103AD000DB6ABB61BB7E002B0FD1FB686FF3DF732A
:103AE000FB600AE07B685B691B693B61BB7C002B68
:103AF00003D1FB686FF3DF73FB60FB787A6803F137
:103B000022034FEA8303D3189B68FA681A6097F878
:103B10002730184607F12C07BD4680BC704700BF10
:103B200080B487B000AF78600B46FB704FF00003A5
:103B3000FB754FF00003FB60FB6843F00043FB6044
:103B4000FB684FF0010262F3DC43FB60FB787A68AC
:103B500003F122034FEA8303D3189B68FA681A61C2
:103B6000FB787A6803F122034FEA8303D3189B683A
:103B70001B683B613B6943F000433B613B696FF36A
:103B80009E733B61FB787A6803F122034FEA83035B
:103B9000D3189B683A691A60FB7D184607F11C0729
:103BA000BD4680BC704700BF80B582B000AF4FF00B
:103BB0000003FB7140F2A063C2F200031B78002BEC
:103BC0000CD040F2A063C2F200031B78012B02D19B
:103BD0004FF0010339E04FF0000336E000F05EF8EB
:103BE00000F034FA4FF0000000F044F80346BB80C8
:103BF0004FF0000045F63C2100F02CF84FF000009B
:103C000000F038F803467B80BB884FF0000019466F
:103C100000F020F87A8845F63C239A4202D14FF012
:103C20000103FB71FB79012B07D140F2A063C2F2C3
:103C300000034FF001021A7006E040F2A063C2F2E6
:103C400000034FF002021A70FB79184607F10807CB
:103C5000BD4680BD80B483B000AF78600B467B80EA
:103C60007B6803F150437A881A8007F10C07BD4640
:103C700080BC704780B485B000AF78604FF000031F
:103C8000FB817B6803F150431B88FB81FB8918464D
:103C900007F11407BD4680BC704700BF80B582B0F5
:103CA00000AF4FF07E004FF0010105F0E5FB4FF053
:103CB00002033B714FF002037B714FF00003BB71B5
:103CC0004FF00003FB714FF48060C4F202004FF02C
:103CD00005014FF00C020EF0A3FD4FF48060C4F21A
:103CE00002004FF006014FF00C020EF099FD4FF06C
:103CF00060033B603B464FF48060C4F2020019460B
:103D00000EF0B2FC4FF40060C4F202004FF000016C
:103D10004FF00C020EF084FD4FF001033B603B4678
:103D20004FF40060C4F2020019460EF09DFC4FF4FF
:103D30004060C4F202004FF000014FF00C020EF0A0
:103D40006FFD4FF44060C4F202004FF001014FF0EC
:103D50000C020EF065FD4FF44060C4F202004FF01B
:103D600008014FF00C020EF05BFD4FF44060C4F20E
:103D700002004FF009014FF00C020EF051FD4FF41C
:103D80004060C4F202004FF00A014FF00C020EF046
:103D900047FD4FF44060C4F202004FF00E014FF0B7
:103DA0000C020EF03DFD4FF44060C4F202004FF0F3
:103DB0000F014FF00C020EF033FD4CF203733B6029
:103DC0003B464FF44060C4F2020019460EF04CFC32
:103DD0004FF48050C4F202004FF000014FF00C028B
:103DE0000EF01EFD4FF48050C4F202004FF00101AE
:103DF0004FF00C020EF014FD4FF48050C4F202009C
:103E00004FF007014FF00C020EF00AFD4FF4805006
:103E1000C4F202004FF008014FF00C020EF000FD5A
:103E20004FF48050C4F202004FF009014FF00C0231
:103E30000EF0F6FC4FF48050C4F202004FF00A017D
:103E40004FF00C020EF0ECFC4FF48050C4F2020074
:103E50004FF00B014FF00C020EF0E2FC4FF48050DB
:103E6000C4F202004FF00C014FF00C020EF0D8FC2F
:103E70004FF48050C4F202004FF00D014FF00C02DD
:103E80000EF0CEFC4FF48050C4F202004FF00E0151
:103E90004FF00C020EF0C4FC4FF48050C4F202004C
:103EA0004FF00F014FF00C020EF0BAFC4FF6837387
:103EB0003B603B464FF48050C4F2020019460EF0BE
:103EC000D3FB4FF4A050C4F202004FF000014FF0BA
:103ED0000C020EF0A5FC4FF4A050C4F202004FF00B
:103EE00001014FF00C020EF09BFC4FF4A050C4F205
:103EF00002004FF002014FF00C020EF091FC4FF463
:103F0000A050C4F202004FF003014FF00C020EF07B
:103F100087FC4FF4A050C4F202004FF004014FF0B0
:103F20000C020EF07DFC4FF4A050C4F202004FF0E2
:103F300005014FF00C020EF073FC4FF4A050C4F2D8
:103F400002004FF00B014FF00C020EF069FC4FF431
:103F5000A050C4F202004FF00C014FF00C020EF022
:103F60005FFC4FF4A050C4F202004FF00D014FF07F
:103F70000C020EF055FC4FF4A050C4F202004FF0BA
:103F80000E014FF00C020EF04BFC4FF4A050C4F2A7
:103F900002004FF00F014FF00C020EF041FC4FF603
:103FA0003F033B603B464FF4A050C4F20200194669
:103FB0000EF05AFB4FF4C050C4F202004FF0000163
:103FC0004FF00C020EF02CFC4FF4C050C4F2020073
:103FD0004FF001014FF00C020EF022FC4FF4C050E4
:103FE000C4F202004FF004014FF00C020EF018FC76
:103FF0004FF4C050C4F202004FF005014FF00C0224
:104000000EF00EFC4FF4C050C4F202004FF0080155
:104010004FF00C020EF004FC4FF4C050C4F202004A
:104020004FF00F014FF00C020EF0FAFB48F2331381
:104030003B603B464FF4C050C4F2020019460EF0FC
:1040400013FB07F10807BD4680BD00BF80B592B0E5
:1040500000AF4FF001004FF0010105F061FA4FF0A1
:1040600002033B604FF007037B604FF00403BB602B
:104070004FF00703FB604FF002033B614FF0020378
:104080007B614FF00203BB614FF00103FB614FF016
:1040900000033B624FF004037B624FF01003BB62EE
:1040A0004FF04003FB624FF4C0733B634FF00003DB
:1040B0007B634FF40063BB634FF00003FB634FF47B
:1040C00000533B643B467B6407F11C0318460FF02A
:1040D00085FB00F005F807F14807BD4680BD00BF2D
:1040E00080B586B000AF4FF000037B614FF0010355
:1040F0007B604FF00803BB604FF00103FB604FF0A3
:1041000000033B6100BF4FF001004FF020010FF0B2
:104110007DFC0346002BF6D107F1040318460FF08F
:1041200039FC4FF00A0000F075F84FF002037B6095
:104130004FF00803BB604FF00103FB604FF000033A
:104140003B6100BF4FF001004FF020010FF05EFC1B
:104150000346002BF6D107F1040318460FF01AFCB2
:104160004FF003037B604FF00803BB604FF0040384
:10417000FB604FF000033B6100BF4FF001004FF0C8
:1041800020010FF043FC0346002BF6D107F1040396
:1041900018460FF0FFFB00BF4FF001004FF0200169
:1041A0000FF034FC0346002BF6D107F10403184648
:1041B0000FF0F0FB40F231237B614FF004037B6092
:1041C0004FF00803BB604FF00103FB607B693B616C
:1041D00000BF4FF001004FF020010FF017FC034625
:1041E000002BF6D107F1040318460FF0D3FB40F281
:1041F000AB200FF0F3FB00BF4FF001004FF02001A8
:104200000FF004FC0346002BF6D107F11807BD465A
:1042100080BD00BF80B485B000AF78604FF0000370
:10422000FB607A6848F2A063C0F2010303FB02F36B
:10423000FB6003E0FB6803F1FF33FB60FB68002BCE
:10424000F8D107F11407BD4680BC704780B582B035
:1042500002AF40F6B403C2F200034FF001021A703D
:1042600045F65C43C2F200034FF000021A6040F6CC
:10427000A403C2F200034FF000021A6045F638535F
:10428000C2F200034FF000021A7045F63853C2F232
:1042900000034FF000025A7045F63853C2F2000393
:1042A0004FF000029A7045F63853C2F200034FF007
:1042B0000002DA7045F63853C2F200034FF00002F4
:1042C0001A7140F6AC03C2F200034FF000029A707C
:1042D00040F6AC03C2F200034FF000021A7040F641
:1042E000AC03C2F200034FF000025A7040F6AC0378
:1042F000C2F200034FF000029A8040F6AC03C2F213
:1043000000034FF00002DA8040F25063C2F2000373
:10431000009345F64050C2F200004FF0000146F213
:10432000EC22C2F2000240F24053C2F200030DF050
:1043300063FCBD4680BD00BF80B500AF40F6B4034E
:10434000C2F200031B78042B09D045F64050C2F29C
:10435000000046F2EC21C2F200010DF0B3FC40F681
:10436000B403C2F200031B78022B06D040F6B4035C
:10437000C2F200031B78032B1ED140F2A463C2F2E9
:1043800000031B6803F1010240F2A463C2F20003C0
:104390001A6040F2A463C2F200031A684AF22013C2
:1043A000C0F207039A420ED940F6B403C2F20003EA
:1043B0004FF004021A7006E040F2A463C2F2000358
:1043C0004FF000021A6040F6B403C2F200031B78FB
:1043D000062B06D145F65C43C2F200034FF0010202
:1043E0001A6040F6B403C2F200031B78184680BD81
:1043F00080B483B000AF4FF00003FB7140F6B4030C
:10440000C2F200031B78082B16D14FF00003FB719A
:1044100045F63853C2F200031B78002B02D04FF050
:104420000103FB7145F63853C2F200035B78002BA1
:1044300002D04FF00203FB71FB79184607F10C071D
:10444000BD4680BC704700BF80B500AF4FF4000090
:104450004FF0010105F0E2F84FF400004FF00001C9
:1044600005F0DCF880BD00BF80B487B000AF786095
:104470004FF000037B614FF000033B614FF00003FE
:10448000FB604FF00003BB604FF43043C4F2020303
:104490004FF43042C4F20202126822F0031222F4F6
:1044A000F8521A604FF43043C4F202034FF4304222
:1044B000C4F2020211687A6812680A431A604FF463
:1044C0003043C4F202034FF43042C4F20202526B92
:1044D00022F007025A634FF43043C4F202034FF450
:1044E0003042C4F20202516B7A6852680A435A633E
:1044F0007B685B68002B0FD17B68DB684FEA032386
:104500007B617B681B694FEA03433B617B685B69A6
:104510004FEA0363FB6046E07B685B68012B0DD1CB
:104520007B68DB684FEA03237B617B681B694FEA8A
:1045300003433B614FF00003FB6034E07B685B6842
:10454000022B0DD17B68DB684FEA43137B617B68EC
:104550001B694FEAC3233B614FF00003FB6022E07D
:104560007B685B68032B0FD17B68DB684FEA4313E2
:104570007B617B681B694FEA83233B617B685B69D6
:104580004FEAC333FB600EE07B68DB684FEA03133E
:104590007B617B681B694FEA03233B617B685B6936
:1045A0004FEA0333FB604FF43043C4F202034FF48D
:1045B0003042C4F20202916B78693A6910437A681A
:1045C00092681043FA6802430A439A634FF43043F7
:1045D000C4F202037A689269DA634FF43043C4F29A
:1045E00002034FF43042C4F20202126C22F47F52F2
:1045F00022F03F021A644FF43043C4F202034FF436
:104600003042C4F20202116C7A68D2690A431A6419
:104610007B685B6A4FEA0343BB604FF43043C4F2EC
:1046200002034FF43042C4F20202526C02F04042E4
:104630005A644FF43043C4F202034FF43042C4F2E0
:104640000202516C7A68106ABA6802430A435A64DB
:1046500007F11C07BD4680BC704700BF80B400AFA7
:104660004FF43043C4F202034FF43042C4F202026A
:10467000126842F001021A60BD4680BC704700BF5C
:1046800080B485B000AF78604FF00003FB734FF447
:104690003043C4F202035A687B681340002B03D0F6
:1046A0004FF00103FB7302E04FF00003FB73FB7B51
:1046B000184607F11407BD4680BC704780B586B028
:1046C00000AFF860B9607A604FF000037B614FF093
:1046D00000033B6112F0E6FE02464FF00303C8F20E
:1046E00000031340002B05DA03F1FF3363F00303EB
:1046F00003F101033B613B69002B1FD17B68032B56
:104700001CD040F6A812C2F20002B968F8680B4645
:104710004FEA43035B184FEAC3034FF43A7101FBBE
:1047200000F15B18D31803F10C031B6803F00103BD
:10473000002B6BD04FF001037B6167E03B69012BDD
:104740001FD17B68042B1CD040F6A812C2F20002D5
:10475000B968F8680B464FEA43035B184FEAC30396
:104760004FF43A7101FB00F15B18D31803F10C030D
:104770001B6803F00203002B48D04FF002037B615B
:1047800044E03B69022B1FD17B68012B1CD040F613
:10479000A812C2F20002B968F8680B464FEA430358
:1047A0005B184FEAC3034FF43A7101FB00F15B1849
:1047B000D31803F10C031B6803F00403002B25D06E
:1047C0004FF003037B6121E03B69032B1ED17B6823
:1047D000022B1BD040F6A812C2F20002B968F8689A
:1047E0000B464FEA43035B184FEAC3034FF43A7199
:1047F00001FB00F15B18D31803F10C031B6803F0F5
:104800000803002B02D04FF004037B617B69002B6F
:104810003FF460AF7B69184607F11807BD4680BDBD
:1048200080B58AB002AFF860B9607A604FF00003DB
:10483000FB6145F67433C2F200035B68BB6145F669
:104840007433C2F200039B687B617B680093F86855
:10485000B968BA697B6900F01DFAF861FB6918460E
:1048600007F12007BD4680BD80B58AB002AFF86071
:10487000B9607A604FF000033B614FF000037B6149
:1048800045F67433C2F200035B68FB6145F674338E
:10489000C2F200039B68BB6145F67433C2F20003A9
:1048A000DB69002B27D145F67433C2F20003DB68C5
:1048B000012B02D14FF001037B6145F67433C2F244
:1048C0000003DB68032B02D14FF002037B6145F646
:1048D0007433C2F20003DB68052B02D14FF00303EF
:1048E0007B6145F67433C2F20003DB68072B02D10B
:1048F0004FF004037B6145F67433C2F20003DB69B9
:10490000012B02D07B69012B0AD1BB69A3F10403FF
:10491000BB61BB69002B37DA4FF00003BB6133E0AA
:1049200045F67433C2F20003DB69022B02D07B69C7
:10493000022B0AD1FB6903F10403FB61FB691B2B0A
:1049400022DD4FF01B03FB611EE045F67433C2F21B
:104950000003DB69032B02D07B69032B0AD1BB69FF
:1049600003F10403BB61BB691E2B0DDD4FF01E0379
:10497000FB6109E0FB69A3F10403FB61FB69002B08
:1049800002DA4FF00003FB61FA69BB6979680091B4
:10499000F868B96800F07EF938613B69184607F19C
:1049A0002007BD4680BD00BF80B58EB002AFF86065
:1049B000B9607A604FF000033B624FF000037B6206
:1049C00045F67433C2F200035B68FB6245F674334C
:1049D000C2F200039B68BB6245F67433C2F2000367
:1049E000DB69002B27D145F67433C2F20003DB6884
:1049F000012B02D14FF001037B6245F67433C2F202
:104A00000003DB68032B02D14FF002037B6245F603
:104A10007433C2F20003DB68052B02D14FF00303AD
:104A20007B6245F67433C2F20003DB68072B02D1C8
:104A30004FF004037B6245F67433C2F20003DB6976
:104A4000012B02D07B6A012B04D1BB6AA3F10203C4
:104A5000BB6221E045F67433C2F20003DB69022B2E
:104A600002D07B6A022B04D1FB6A03F10203FB62D2
:104A700012E045F67433C2F20003DB69032B02D067
:104A80007B6A032B04D1BB6A03F10203BB6203E020
:104A9000FB6AA3F10203FB6245F66043C2F2000326
:104AA0009B68FB6145F66043C2F20003DB68BB61B3
:104AB000FA6AFB69D31A7B61BA6ABB69D31A3B6194
:104AC000FA6A7B69D318FB62BA6A3B69D318BB6286
:104AD000FB6A002B02DA4FF00003FB62FB6A1B2B20
:104AE00002DD4FF01B03FB62BB6A002B02DA4FF0C2
:104AF0000003BB62BB6A1E2B02DD4FF01E03FB628C
:104B0000FA6ABB6A79680091F868B96800F0C2F87F
:104B100038623B6A184607F13007BD4680BD00BFCA
:104B200080B58AB002AFF860B9607A603B604FF040
:104B30000003FB6148F29F63C0F20103BB6145F6CD
:104B40007433C2F200035B687B6145F67433C2F2D2
:104B500000039B683B6178693969BA687B6800F03B
:104B60008BF9B861BB69B3F5487F09D93B680093FD
:104B7000B86879687A693B6900F08CF8F86106E0FA
:104B8000F868B9687A683B6800F046F8F861FB6934
:104B9000184607F12007BD4680BD00BF80B58AB02A
:104BA00002AFF860B9607A603B604FF000037B6150
:104BB000FB68002B06D14FF00E03FB614FF00E0394
:104BC000BB6119E0FB68012B06D14FF00E03FB61BE
:104BD0004FF00E03BB610FE0FB68022B06D14FF0D4
:104BE0000C03FB614FF00E03BB6105E04FF01003B7
:104BF000FB614FF00E03BB613B680093B8687968B6
:104C0000FA69BB6900F046F878617B69184607F1DC
:104C10002007BD4680BD00BF80B58AB002AFF860F6
:104C2000B9607A603B604FF000037B61FB68002B4A
:104C300006D14FF01B03FB614FF00003BB6119E08D
:104C4000FB68012B06D14FF00003FB614FF000031E
:104C5000BB610FE0FB68022B06D14FF01B03FB6129
:104C60004FF01E03BB6105E04FF00003FB614FF006
:104C70001E03BB613B680093B8687968FA69BB6939
:104C800000F008F878617B69184607F12007BD46F7
:104C900080BD00BF80B58CB000AFF860B9607A60AD
:104CA0003B604FF00003FB6248F29F63C0F20103D8
:104CB000BB6248F29F63C0F201037B6248F29F63CC
:104CC000C0F201033B6248F29F63C0F20103FB6143
:104CD00040F6A812C2F20002B968F8680B464FEA23
:104CE00043035B184FEAC3034FF43A7101FB00F131
:104CF0005B18D31803F10C031B6803F00103002BAE
:104D00000FD0BB6B032B0CD0FB687B61BB6803F13E
:104D1000FF333B61786839687A693B6900F0ACF829
:104D2000B86240F6A812C2F20002B968F8680B46F1
:104D30004FEA43035B184FEAC3034FF43A7101FB98
:104D400000F15B18D31803F10C031B6803F0020396
:104D5000002B0FD0BB6B042B0CD0FB6803F10103BD
:104D60007B61BB683B61786839687A693B6900F0B0
:104D700083F8786240F6A812C2F20002B968F868B7
:104D80000B464FEA43035B184FEAC3034FF43A71F3
:104D900001FB00F15B18D31803F10C031B6803F04F
:104DA0000403002B0FD0BB6B012B0CD0FB687B6185
:104DB000BB6803F101033B61786839687A693B6934
:104DC00000F05AF8386240F6A812C2F20002B96840
:104DD000F8680B464FEA43035B184FEAC3034FF4EE
:104DE0003A7101FB00F15B18D31803F10C031B6847
:104DF00003F00803002B0FD0BB6B022B0CD0FB6819
:104E000003F1FF337B61BB683B61786839687A697D
:104E10003B6900F031F8F86148F29F63C0F201038A
:104E2000BB61BA6ABB699A4204D2BB6ABB614FF0EC
:104E30000103FB62FA69BB699A4204D2FB69BB6158
:104E40004FF00403FB623A6ABB699A4204D23B6AA0
:104E5000BB614FF00303FB627A6ABB699A4204D2DA
:104E60007B6ABB614FF00203FB62FB6A184607F1E5
:104E70003007BD4680BD00BF80B588B000AFF86088
:104E8000B9607A603B604FF00003FB61FA687B68B1
:104E9000D31ABB61BB69002BB8BF5B42BB61BA6868
:104EA0003B68D31A7B617B69002BB8BF5B427B6197
:104EB000BB694FF0640202FB03F3BB617B694FF0F7
:104EC000640202FB03F37B61BB69002B02D07B69A8
:104ED000002B18D1BB69002B07D17B69002B04D1B3
:104EE0004FF00003FB61FB691FE0BB69002B03D19E
:104EF0007B69FB61FB6918E07B69002B03D1BB690F
:104F0000FB61FB6911E0BB69BA6902FB03F3BB619A
:104F10007B697A6902FB03F37B61BA697B69D31809
:104F2000184600F007F8F861FB69184607F12007FA
:104F3000BD4680BD80B487B000AF78604FF00003FD
:104F4000FB604FF001037B614FF003033B6107E01F
:104F50007A693B69D3187B613B6903F102033B61CA
:104F60007A697B689A42F3D93B694FEA530303F1AC
:104F7000FF33FB60FB68184607F11C07BD4680BC89
:104F8000704700BF80B582B000AF40F2A863C2F2A4
:104F900000031B78002B7AD14FF400004FF0010181
:104FA00004F0E8FA40F20003C2F200039B681846DE
:104FB0004FF0010104F060FA40F20003C2F2000376
:104FC0009B6918464FF0010104F056FA4FF40000B7
:104FD0004FF0010104F04CFB4FF400004FF00001D2
:104FE00004F046FB40F20003C2F200031A6840F2EC
:104FF0000003C2F200031B7B104619464FF0040267
:105000000DF00EFC40F20003C2F200031A6940F2F8
:105010000003C2F200031B7F104619464FF0040242
:105020000DF0FEFB4FF002033B714FF002037B716A
:105030004FF00103BB714FF00003FB7140F200031E
:10504000C2F200039B883B6040F20003C2F20003FF
:105050001A683B46104619460DF006FB40F2000365
:10506000C2F200039B8A3B6040F20003C2F20003DD
:105070001A693B46104619460DF0F6FA00F062FA3E
:1050800040F2A863C2F200034FF001021A7007F168
:105090000807BD4680BD00BF80B584B000AF0246A2
:1050A0000B46FA71BB714FF000037B814FF4405304
:1050B000FB604FF4B840C4F200004FF0010110F063
:1050C00011F84FF44053FB600DE0FB68002B04D057
:1050D000FB6803F1FF33FB6005E04FF0FF3000F0A9
:1050E0005DFA034622E14FF4B840C4F200004FF0ED
:1050F0000101C1F2000110F0B5F80346002BE4D025
:105100004FF4B840C4F200004FF0000110F048F82E
:10511000FB794FF4B840C4F2000019464FF000028A
:1051200010F020F84FF44053FB600DE0FB68002BBB
:1051300004D0FB6803F1FF33FB6005E06FF0010072
:1051400000F02CFA0346F1E04FF4B840C4F200003E
:105150004FF00201C1F2000110F084F80346002B69
:10516000E4D04FF4B843C4F200031B8B4FF4405318
:10517000FB600DE0FB68002B04D0FB6803F1FF33FC
:10518000FB6005E06FF0020000F008FA0346CDE096
:105190004FF4B840C4F200004FF08001C1F20001AA
:1051A00010F060F80346002BE4D0BB794FF4B84010
:1051B000C4F20000194610F037F84FF44053FB607A
:1051C0000DE0FB68002B04D0FB6803F1FF33FB60AC
:1051D00005E06FF0030000F0E1F90346A6E04FF4AC
:1051E000B840C4F200004FF08001C1F2000110F09D
:1051F00039F80346002BE4D04FF4B840C4F2000065
:105200004FF00401C1F2000110F02CF80346002B0E
:10521000D7D04FF4B840C4F200004FF001010FF0B6
:1052200061FF4FF44053FB600DE0FB68002B04D09E
:10523000FB6803F1FF33FB6005E06FF0040000F052
:10524000ADF9034672E04FF4B840C4F200004FF0ED
:105250000101C1F2000110F005F80346002BE4D073
:10526000FB794FF4B840C4F2000019464FF0010238
:105270000FF078FF4FF44053FB600DE0FB68002B0C
:1052800004D0FB6803F1FF33FB6005E06FF005001D
:1052900000F084F9034649E04FF4B840C4F200003E
:1052A0004FF00201C1F200010FF0DCFF0346002BBA
:1052B000E4D04FF4B843C4F200031B8B4FF44053C7
:1052C000FB600DE0FB68002B04D0FB6803F1FF33AB
:1052D000FB6005E06FF0060000F060F9034625E092
:1052E0004FF4B840C4F200004FF04001C1F2000199
:1052F0000FF0B8FF0346002BE4D04FF4B840C4F2DF
:1053000000004FF001010FF00DFF4FF4B840C4F260
:1053100000000FF099FF03467B814FF4B840C4F2C0
:1053200000004FF001010FF03BFF7B891BB21846D4
:1053300007F11007BD4680BD80B584B000AF1346AD
:105340000246FA710A46BA717B714FF000037B8105
:105350004FF44053FB604FF4B840C4F200004FF0EC
:1053600001010FF0BFFE4FF44053FB600DE0FB68FE
:10537000002B04D0FB6803F1FF33FB6005E04FF026
:10538000FF3000F00BF90346C0E04FF4B840C4F220
:1053900000004FF00101C1F200010FF063FF03466E
:1053A000002BE4D0FB794FF4B840C4F2000019465A
:1053B0004FF000020FF0D6FE4FF44053FB600DE0BB
:1053C000FB68002B04D0FB6803F1FF33FB6005E0B2
:1053D0006FF0010000F0E2F8034697E04FF4B840A8
:1053E000C4F200004FF00201C1F200010FF03AFFD9
:1053F0000346002BE4D04FF4B843C4F200031B8BE8
:105400004FF44053FB600DE0FB68002B04D0FB68B9
:1054100003F1FF33FB6005E06FF0020000F0BEF81F
:10542000034673E04FF4B840C4F200004FF080012F
:10543000C1F200010FF016FF0346002BE4D0BB7948
:105440004FF4B840C4F2000019460FF0EDFE4FF4DF
:105450004053FB600DE0FB68002B04D0FB6803F1B8
:10546000FF33FB6005E06FF0030000F097F80346A0
:105470004CE04FF4B840C4F200004FF08001C1F29C
:1054800000010FF0EFFE0346002BE4D07B794FF4D0
:10549000B840C4F2000019460FF0C6FE4FF4405366
:1054A000FB600DE0FB68002B04D0FB6803F1FF33C9
:1054B000FB6005E06FF0040000F070F8034625E0A3
:1054C0004FF4B840C4F200004FF08001C1F2000177
:1054D0000FF0C8FE0346002BE4D04FF4B840C4F2EE
:1054E00000004FF00401C1F200010FF0BBFE0346C3
:1054F000002BD7D04FF4B840C4F200004FF00101A8
:105500000FF010FE4FF000037B817B891BB2184621
:1055100007F11007BD4680BD80B483B000AF78604E
:1055200000BF7B68002B0CBF00220122D2B203F126
:10553000FF337B60002AF4D107F10C07BD4680BC25
:10554000704700BF80B584B000AF4FF00003BB8050
:105550004BF6FF73FB804FF000033B814FF48063F9
:105560007B814FF48043BB8148F2A063C0F201030A
:105570003B604FF4B840C4F200004FF001010FF05F
:1055800091FD3B464FF4B840C4F2000019460FF0BD
:10559000B3FC07F11007BD4680BD00BF80B584B0E5
:1055A00000AF0346FB80FB88FB814FF4B840C4F298
:1055B00000004FF001010FF0B5FD4FF4B840C4F208
:1055C00000004FF001010FF00BFE4FF4B840C4F2A1
:1055D00000004FF000010FF003FE4FF4B840C4F29A
:1055E00000000FF045FCFFF7ADFFFB891BB218462A
:1055F00007F11007BD4680BD80B582B000AF78606E
:10560000F970BA707B70F878FB787A6803F53173BB
:105610004FEA4303D3189B88DBB203F07F03DAB26F
:1056200079684FEA4013CB1803F56A735A71F8781A
:10563000FB787A6803F531734FEA4303D3189B88EC
:1056400003F08003002B0CBF00230123DBB21A46BA
:1056500079684FEA4013CB1803F56A739A71FB78A7
:105660007A684FEA4313D31803F56A73BA781A714C
:10567000FB787A684FEA4313D31803F56A733A7CD0
:105680005A72FB787A684FEA4313D31803F56A73AA
:10569000BA8A5A81FB787A684FEA4313D31803F524
:1056A0006A737A78DA71FB787A6803F11E034FEA3D
:1056B0004313D3184FF000021A71FB787A6803F194
:1056C0001E034FEA4313D3184FF000025A717B7840
:1056D000002B09D1FB787A684FEA4313D31803F5FE
:1056E0006A734FF001021A72FB7878681946FDF769
:1056F000D1FE4FF00003184607F10807BD4680BDF4
:1057000080B582B000AF7860F970BA707B70BB78FA
:10571000002B08D0FB787A684FEA4313D31803F5BF
:105720006A73BA781A71FB787A684FEA4313D31810
:1057300003F56A735B89BA8A9A420BD0BB8A002B45
:1057400008D0FB787A684FEA4313D31803F56A73DD
:10575000BA8A5A81FB787A684FEA4313D31803F563
:105760006A73DB797A789A420BD07B78002B08D069
:10577000FB787A684FEA4313D31803F56A737A7893
:10578000DA71FB7878681946FDF784FE4FF0000364
:10579000184607F10807BD4680BD00BF80B584B03C
:1057A00000AF78600B46FB70786800F065F8034640
:1057B000FB81FA894FF6FF739A420ED0F889FB7885
:1057C0009BB26FEA43436FEA53439AB2796800F59C
:1057D00031734FEA4303CB189A80FB89DBB218463A
:1057E00007F11007BD4680BD80B483B000AF78607C
:1057F0000B46FB70FB78072B14D8F878FB787A6897
:1058000003F531734FEA4303D3189B884FEA4343B0
:105810004FEA53439AB2796800F531734FEA430374
:10582000CB189A804FF00003184607F10C07BD46CD
:1058300080BC704780B485B000AF78604FF0020341
:10584000FB730DE0FB7B7A6803F531734FEA43038A
:10585000D3184FF000029A80FB7B03F10103FB7326
:10586000FB7B072BEED94FF00003184607F1140716
:10587000BD4680BC704700BF80B485B000AF786083
:105880004FF00003FB734FF00003FB7312E0FB7B50
:105890007A6803F531734FEA4303D3189B889BB2B0
:1058A0001BB2002B02DBFB7B9BB208E0FB7B03F10E
:1058B0000103FB73FB7B072BE9D94FF6FF731846F7
:1058C00007F11407BD4680BC704700BF80B58AB0A1
:1058D00000AF786039604FF000037B624FF0000347
:1058E0003B624FF00003FB614FF00003BB617B683C
:1058F0001B8A9BB27B627B6A23F440537B623B68CA
:10590000DB887A6A13437B627B6A9AB27B681A826D
:105910007B689B899BB27B627B6A23F4B05323F044
:105920000C037B623B689A883B681B8913439AB2DD
:105930003B685B8913439BB27A6A13437B627B6A41
:105940009AB27B689A817B689B8A9BB27B627B6AF6
:1059500023F440737B623B689B897A6A13437B62C2
:105960007B6A9AB27B689A8207F10803184603F0B3
:105970007BFC7A684FF48053C4F201039A4206D04C
:105980007A684FF4A053C4F201039A4202D17B69B2
:105990003B6201E03B693B627B689B899BB29BB2A7
:1059A0001BB2002B0FDA3A6A13464FEA83039B18A7
:1059B0004FEA83029A183B681B684FEA4303B2FB25
:1059C000F3F3FB610EE03A6A13464FEA83039B1838
:1059D0004FEA83029A183B681B684FEA8303B2FBC5
:1059E000F3F3FB61FA6948F21F53C5F2EB13A3FB13
:1059F00002134FEA53134FEA03137B627B6A4FEAA9
:105A000013134FF0640202FB03F3FA69D31ABB616C
:105A10007B689B899BB29BB21BB2002B12DABB69DD
:105A20004FEAC30303F1320248F21F53C5F2EB13EE
:105A3000A3FB02134FEA531303F007037A6A1343DD
:105A40007B6211E0BB694FEA031303F1320248F2B3
:105A50001F53C5F2EB13A3FB02134FEA531303F0DA
:105A60000F037A6A13437B627B6A9AB27B681A815E
:105A700007F12807BD4680BD80B483B000AF7860D1
:105A80000B46FB70FB78002B08D07B689B899BB290
:105A900043F400539AB27B689A8107E07B689B8944
:105AA0009BB223F400539AB27B689A8107F10C07EA
:105AB000BD4680BC704700BF80B483B000AF786043
:105AC0000B46FB70FB78002B0AD07B689B899BB24E
:105AD0006FEA43436FEA53439AB27B689A8109E0C5
