:020000040800F2
:10000000E068002051340008BD340008BD34000809
:10001000BD340008BD340008BD34000800000000F5
:10002000000000000000000000000000BD340008D7
:10003000BD34000800000000BD340008C13B0008CA
:10004000BD340008BD340008BD340008BD340008CC
:10005000BD340008BD340008BD340008BD340008BC
:10006000BD340008BD340008BD340008BD340008AC
:10007000BD340008BD340008BD340008BD3400089C
:10008000BD340008BD340008BD340008BD3400088C
:10009000BD340008BD340008BD340008BD3400087C
:1000A000BD340008BD340008BD340008BD3400086C
:1000B000BD340008BD340008BD340008BD3400085C
:1000C000BD340008BD340008BD340008BD3400084C
:1000D000BD3400084154000881540008C154000890
:1000E000BD340008BD340008BD340008BD3400082C
:1000F000BD340008BD340008BD340008BD3400081C
:10010000BD340008BD340008BD340008BD3400080B
:10011000BD340008BD340008BD3400088D4C000813
:10012000BD340008BD340008BD340008BD340008EB
:10013000BD340008BD340008BD340008BD340008DB
:10014000BD340008BD340008BD340008BD340008CB
:10015000BD340008BD340008BD3400080155000856
:10016000BD340008BD340008BD340008BD340008AB
:10017000BD340008617E0008BD340008BD340008AD
:10018000BD340008BD340008BD340008BD3400088B
:10019000BD340008BD340008BD340008BD3400087B
:1001A000BD340008BD340008BD34000880B485B0FB
:1001B00000AF78604FF00003FB607B68DB684FF0B6
:1001C000FF325A607B68DB686FF080425A61FB68DF
:1001D00043F00043FB60FB6843F40063FB607B6813
:1001E000DB68FA689A6107F11407BD4680BC704766
:1001F00080B586B000AF78604FF00003FB744FF01D
:1002000000037B614FF00003FB604FF0030007F039
:10021000EBFD7B68DB681B69FB607B6903F1010315
:100220007B617A694FF45463C0F203039A4202D9A6
:100230004FF000032AE0FB6803F00043002BE4D0FA
:100240004FF000037B61FB6843F00103FB607B68B8
:10025000DB68FA681A617B68DB681B69FB607B6995
:1002600003F101037B617A694FF45463C0F2030325
:100270009A4205D8FB6803F00103002BEBD100E0A4
:1002800000BF4FF0030007F0AFFDFB7C184607F1FD
:100290001807BD4680BD00BF80B489B000AFF860CC
:1002A000B960FA71BB804FF00003FB76FB68DB7826
:1002B000002B2CD14FF000037B614FF00003FB615A
:1002C000BB8803F10303002B01DA03F103034FEAB8
:1002D000A3037B61FB79FA6803F132034FEA8303DE
:1002E000D3189B683B614FF00003FB610BE0BB68D8
:1002F0001A683B691A60FB6903F10103FB61BB6883
:1003000003F10403BB60FA697B699A42EFD3FB7E79
:10031000184607F12407BD4680BC704780B489B0F9
:1003200000AFF860B9601346FB804FF00003FB613B
:10033000FB8803F10303002B01DA03F103034FEA07
:10034000A303BB61FB68D3F8D0307B614FF000039F
:10035000FB610BE07B691A68BB681A60FB6903F1FB
:100360000103FB61BB6803F10403BB60FA69BB696D
:100370009A42EFD3BB68184607F12407BD4680BCFC
:10038000704700BF80B487B000AF78600B46FB7049
:100390004FF000033B614FF00003FB737B684FF0AD
:1003A0000002DA707B684FF001029A707B684FF0B0
:1003B00040029A80FB78012B17D14FF0A0433B619C
:1003C0007B684FF00102DA727B684FF008021A7006
:1003D0007B684FF004025A707B684FF4A072DA8099
:1003E0007B684FF002021A721FE0FB78002B1CD1D1
:1003F0004FF00003C4F204033B617B684FF000023E
:10040000DA727B684FF00C021A707B684FF00602BC
:100410005A707B684FF4A062DA807B684FF002026A
:100420001A727B684FF00102DA703A697B68DA6011
:100430003B6903F500631A467B681A614FF00003BD
:100440007B6123E07B694FEA43123B69D31803F5D4
:1004500010631A4679687B6903F104034FEA83034A
:10046000CB189A607B694FEA43123B69D31803F5B6
:1004700030631A4679687B6903F114034FEA8303FA
:10048000CB185A607B6903F101037B617B685B7861
:100490001A467B699A42D5D83B6903F580631A46B0
:1004A0007B685A613B6903F588631A467B68C3F829
:1004B000CC204FF000037B6113E07B694FEA4312CD
:1004C0003B69D31803F5A0631A4679687B6903F189
:1004D00022034FEA8303CB189A607B6903F101037F
:1004E0007B617B681B781A467B699A42E5D84FF09E
:1004F00000037B6113E07B694FEA03323B69D31849
:1005000003F580531A4679687B6903F132034FEA99
:100510008303CB189A607B6903F101037B617B68DD
:100520001B781A467B699A42E5D83B6903F56063FC
:100530001A467B68C3F80C21FB7B184607F11C07A1
:10054000BD4680BC704700BF80B586B000AF786004
:100550004FF00003FB754FF000033B614FF00003C9
:10056000FB604FF00003BB607B681B7A012B48D116
:100570007B68DB689B6BFB60FB686FF31043FB6081
:100580007B685B7A002B03D0FB6843F48013FB602D
:100590007B68DB68FA689A634FF000033B617B6815
:1005A000DB68DB683B613B696FF386133B613B694A
:1005B00043F480133B613B696FF396533B613B69A6
:1005C0006FF351433B613B696FF3D3433B617B68FE
:1005D000DB683A69DA607868FFF70AFE7B68DB78E7
:1005E000012B40D1BB684FF0050262F34403BB60AE
:1005F000BB6843F02003BB607B68DB68BA689A6025
:1006000031E07B68DB68DB683B613B6943F04003BA
:100610003B617B68DB683A69DA607868FFF7E8FD80
:100620004FF00003FB60FB6843F48033FB60FB6822
:1006300043F48023FB60FB6843F40023FB60FB680A
:1006400043F40013FB607B685B7A002B03D0FB68EC
:1006500043F48013FB607B68DB68FA689A634FF0B1
:10066000140007F0EDFB7B68DB78012B11D17B6870
:10067000DB689B68BB60BB684FF0050262F3440314
:10068000BB60BB6843F02003BB607B68DB68BA6873
:100690009A60FB7D184607F11807BD4680BD00BF74
:1006A00080B485B000AF78604FF00003FB734FF06B
:1006B0000003BB60BB6843F00103BB607B68DB6881
:1006C0007A68D2689168BA680A439A60FB7B1846D8
:1006D00007F11407BD4680BC704700BF80B485B0E9
:1006E00000AF78604FF00003FB734FF00003BB6076
:1006F000BB6843F00103BB607B68DB687A68D26843
:100700009168BA686FEA02020A409A60FB7B184659
:1007100007F11407BD4680BC704700BF80B586B0A6
:1007200000AF786039604FF00003FB744FF00003B6
:100730007B614FF00003FB60FB6843F02003FB602C
:100740003B68DBB203F01F03DAB2FB6862F38A1383
:10075000FB607B68DB68FA681A617B68DB681B6991
:10076000FB607B6903F101037B617A694FF4546399
:10077000C0F203039A4205D8FB6803F02003002B64
:10078000EBD100E000BF4FF0030007F02DFBFB7C36
:10079000184607F11807BD4680BD00BF80B586B07A
:1007A00000AF78604FF00003FB744FF000037B61F3
:1007B0004FF00003FB60FB6843F01003FB607B68B5
:1007C000DB68FA681A617B68DB681B69FB607B6920
:1007D00003F101037B617A694FF45463C0F20303B0
:1007E0009A4205D8FB6803F01003002BEBD100E020
:1007F00000BF4FF0030007F0F7FAFB7C184607F143
:100800001807BD4680BD00BF80B584B000AF7860DA
:100810000B46FB704FF00003FB737B68DB68DB6803
:10082000BB60BB686FF35D73BB60BB686FF39E73A7
:10083000BB60FB78012B04D1BB6843F00053BB6065
:1008400006E0FB78002B03D1BB6843F08043BB601C
:100850007B68DB68BA68DA604FF0320007F0F0FAC4
:10086000FB7B184607F11007BD4680BD80B483B0FE
:1008700000AF78607B68DB685B6903F001031846B2
:1008800007F10C07BD4680BC704700BF80B582B041
:1008900000AF78607868FFF7E9FF0346012B14BFCB
:1008A00000230123DBB2184607F10807BD4680BDCF
:1008B00080B485B000AF78604FF00003FB607B68C8
:1008C000DB685B69FB607B68DB689B69FA681340E7
:1008D000FB60FB68184607F11407BD4680BC7047F3
:1008E00080B588B000AF78604FF00003FB764FF022
:1008F0000003FB614FF000037B614FF000033B619D
:100900004FF00003FB60786807F03CFA7B68D3F88F
:100910000C314FF000021A607B681B7A012B05D165
:1009200078684FF0000100F013F904E078684FF0A8
:10093000010100F00DF9786800F054F97B685B69FB
:100940001B68FB603B7B6FF382033B737B685B69D7
:10095000FA681A607B68DB7A002B25D17B68DB683C
:100960004FF400725A627B694FF4007262F30F0316
:100970007B617B694FF4807262F31F437B617B680C
:10098000DB687A699A623B694FF4407262F30F0345
:100990003B613B694FF4807262F31F433B617B68AC
:1009A000DB683A69C3F8002178684FF01001FFF75F
:1009B000B5FE7868FFF7F2FE4FF00003FB6119E027
:1009C0007A68FB6903F122034FEA8303D3189B681B
:1009D0004FF0FF329A607A68FB6903F122034FEA15
:1009E0008303D3189B684FF00002DA60FB6903F1C0
:1009F0000103FB617B681B781A46FB699A42DFD8CA
:100A000078684FF0010100F01DF8786800F05AF89E
:100A1000FB7E184607F12007BD4680BD80B483B039
:100A200000AF78607B685B699B6803F00103002B73
:100A300014BF00230123DBB2184607F10C07BD46A3
:100A400080BC704780B584B000AF78600B46FB7007
:100A50004FF00003FB60FB787868194607F074F9E3
:100A6000786800F091F80346FB607B7B03F010038D
:100A7000DBB2002B0BD1FB78012B08D1FB6843F4D0
:100A80008053FB607B68D3F8CC30FA681A607B7BBC
:100A900003F01003DBB2002B0BD0FB78002B08D146
:100AA000FB686FF30C33FB607B68D3F8CC30FA68DB
:100AB0001A604FF0C80007F0C3F907F11007BD46F0
:100AC00080BD00BF80B584B000AF78604FF00003F8
:100AD000FB734FF00003BB607B68DB684FF00002E4
:100AE0009A617B68DB684FF0FF325A617868FFF7E4
:100AF0005DFB7B68DB78002B03D1BB6843F0100300
:100B0000BB60BB6843F08073BB60BB6843F000739D
:100B1000BB60BB6843F00053BB60BB6843F0080395
:100B2000BB60BB6843F40013BB607B68DB687A681A
:100B3000D2689169BA686FEA02021140BA680A4342
:100B40009A61FB7B184607F11007BD4680BD00BFC8
:100B500080B485B000AF78600B46FB707B685B6942
:100B60001B68FB60FB7803F00303DAB23B7B62F3A4
:100B700001033B737B685B69FA681A6007F114072D
:100B8000BD4680BC704700BF80B485B000AF7860C0
:100B90007B68D3F8CC301B68FB60FB686FF3820383
:100BA000FB60FB686FF34103FB60FB686FF3C303FB
:100BB000FB60FB686FF34513FB60FB68184607F1A9
:100BC0001407BD4680BC704780B483B000AF786026
:100BD0007B685B695B69184607F10C07BD4680BC02
:100BE000704700BF80B584B000AF78607868FFF7C9
:100BF000CBFF0346FB60FB6843F48073FB607B68BC
:100C0000D3F8CC30FA681A604FF00A0007F018F9F0
:100C1000FB686FF30823FB607B68D3F8CC30FA687D
:100C20001A604FF0140007F00BF94FF0010318465B
:100C300007F11007BD4680BD80B489B000AF786071
:100C40000B46FB704FF00003FB774FF00003BB61D6
:100C50004FF000033B614FF000037B614FF0000356
:100C6000FB604FF0FF33BB60FB787A6803F122032F
:100C70004FEA8303D3189B68BA689A604FF0000369
:100C80007B617B68DB78012B03D17B6943F0040334
:100C90007B61FB787A684FEA4313D31803F56A73D4
:100CA0005B7A032B00F28D8001A252F823F000BF83
:100CB000C10C00087B0D0008C10C00082D0D0008B8
:100CC0007B6943F001037B617B6943F008037B612F
:100CD0007B6943F080037B617B6943F480637B61C4
:100CE0007B6943F010037B61FB787A684FEA43131A
:100CF000D31803F56A739B79002B04D07B6943F406
:100D000080737B6158E07B6943F040037B61FB7833
:100D10007A684FEA4313D31803F56A731B7A002BE2
:100D20004AD07B6943F020037B6145E07B6943F057
:100D300001037B617B6943F010037B617B6943F0B6
:100D400008037B617B6943F080037B617B6943F42B
:100D500080637B617B6943F400737B61FB787A6815
:100D60004FEA4313D31803F56A739B79002B25D000
:100D70007B6943F480737B6120E07B6943F001036E
:100D80007B617B6943F400737B617B6943F02003E3
:100D90007B61FB787A684FEA4313D31803F56A73D3
:100DA0009B79002B0CD07B6943F080037B617B69CE
:100DB00043F480737B6103E000BF02E000BF00E00A
:100DC00000BFFB787A6803F122034FEA8303D3184C
:100DD0009B687A69DA60FB784FF0010202FA03F34C
:100DE000BB617B685B697A6852699169BA690A4339
:100DF0009A613B6943F000733B617B68DB687A680A
:100E0000D26891693A690A439A614FF00003FB6026
:100E1000FB787A684FEA4313D31803F56A731B799A
:100E200003F07F03DAB2FB6862F39C53FB60FB784C
:100E30007A684FEA4313D31803F56A735B7903F0BA
:100E40000F03DAB2FB6862F3CE23FB60FB787A68AB
:100E50004FEA4313D31803F56A739B7903F0010338
:100E6000DAB2FB6862F3CF33FB60FB787A684FEA53
:100E70004313D31803F56A73DB79022B14BF0023E5
:100E80000123DAB2FB6862F35143FB60FB787A68B6
:100E90004FEA4313D31803F56A735B7A03F0030335
:100EA000DAB2FB6862F39343FB60FB787A684FEA3F
:100EB0004313D31803F56A735B894FEA43534FEA30
:100EC00053539AB2FB6862F30A03FB60FB787A68BB
:100ED0004FEA4313D31803F56A735B7A032B03D1EC
:100EE000FB6843F00053FB60FB787A6803F1220350
:100EF0004FEA8303D3189B68FA681A60FB7F184691
:100F000007F12407BD4680BC704700BF80B58CB098
:100F100000AF78600B46FB704FF0000387F82D3070
:100F20004FF000037B854FF480733B854FF0000347
:100F30003B624FF000037B624FF00003BB60FB7825
:100F40007A684FEA4313D31803F56F731B68002BBD
:100F500037D0FB787A684FEA4313D31803F56F73E1
:100F60001A68FB7879684FEA4313CB1803F56A7364
:100F70005B89D31803F1FF32FB7879684FEA43139A
:100F8000CB1803F56A735B89B2FBF3F3FB85FA8D2B
:100F90003B8D9A4218D93B8DFB85FB78FA8DF97809
:100FA00078684FEA4111411801F56A71498901FBDE
:100FB00002F279684FEA4313CB1803F56F731A6096
:100FC00002E04FF00103FB85FB787A684FEA431398
:100FD000D31803F56A739B79002B12D0FB78FA8D36
:100FE000F97878684FEA4111411801F56A71498929
:100FF00001FB02F279684FEA4313CB1803F56F73D4
:101000001A60FB787A684FEA4313D31803F56F73BD
:101010001B6823F07F4222F478023B6A62F31203DA
:101020003B62FB8D4FEA83534FEA93539AB23B6A7C
:1010300062F3DC433B62FB787A6803F115034FEA05
:101040004313D31803F588731B7903F00303DAB253
:101050003B6A62F35E733B62FB787A6803F12203BA
:101060004FEA8303D3189B683A6A1A617B68DB787E
:10107000012B12D1FB787A6803F122034FEA830334
:10108000D3189B68FA78796802F115024FEA421288
:101090008A1802F58C7212685A61FB787A6803F13B
:1010A00022034FEA8303D3189B681B687B6278682E
:1010B000FFF7B4FC034603F00103DAB27B6A62F384
:1010C0005D737B627B6A43F000437B627B6A6FF3F4
:1010D0009E737B62FB787A6803F122034FEA8303F5
:1010E000D3189B687A6A1A607B68DB78002B40F023
:1010F0008980FB787A684FEA4313D31803F56A7343
:101100009B79002B7ED1FB787A684FEA4313D31882
:1011100003F56F731B68002B74D0FB787A684FEA75
:101120004313D31803F56A735B7A032B4ED801A2DD
:1011300052F823F0451100088911000845110008F4
:10114000891100087B68DB68DB6A7B61FB787A6861
:101150004FEA4313D31803F56F731B6803F10303BE
:101160004FEA93037B85BB8A7A8D9A4230D9BB685C
:1011700043F02003BB607B68DB687A68D2689169C2
:10118000BA680A439A6123E07B685B691B69FB606C
:10119000FB787A684FEA4313D31803F56F731B6823
:1011A00003F103034FEA93037B85BB897A8D9A424F
:1011B00010D9BB6843F08063BB607B68DB687A68EA
:1011C000D2689169BA680A439A6103E000BF02E0FD
:1011D00000BF00E000BFFB787A6803F115034FEA17
:1011E0004313D31803F58C731968FB787A684FEAB8
:1011F0004313D31803F56F731B689BB2FA787868B2
:10120000FFF74AF897F82D30184607F13007BD462A
:1012100080BD00BF80B48BB000AF78600B46FB7020
:101220004FF0000387F827304FF00003BB614FF009
:1012300000033B61FB787A6803F122034FEA8303E2
:10124000D3189B681B68FB60FB6843F00043FB609E
:10125000FB6843F08043FB60BB7B03F00C03DBB215
:10126000002B05D0BB7B03F00C03DBB2082B0BD1AA
:101270007B68DB68DB6ABB61BB7E002B0FD1FB6840
:101280006FF3DF73FB600AE07B685B691B693B619E
:10129000BB7C002B03D1FB686FF3DF73FB60FB7833
:1012A0007A6803F122034FEA8303D3189B68FA6834
:1012B0001A6097F82730184607F12C07BD4680BC06
:1012C000704700BF80B487B000AF78600B46FB70FA
:1012D0004FF00003FB754FF00003FB60FB6843F029
:1012E0000043FB60FB684FF0010262F3DC43FB60EC
:1012F000FB787A6803F122034FEA8303D3189B68D3
:10130000FA681A61FB787A6803F122034FEA8303D3
:10131000D3189B681B683B613B6943F000433B610A
:101320003B696FF39E733B61FB787A6803F122039C
:101330004FEA8303D3189B683A691A60FB7D18460D
:1013400007F11C07BD4680BC704700BF80B582B066
:1013500000AF4FF00003FB7140F27C13C2F20003B8
:101360001B78002B0CD040F27C13C2F200031B78D8
:10137000012B02D14FF0010339E04FF0000336E0BA
:1013800000F05EF800F034FA4FF0000000F044F88E
:101390000346BB804FF0000045F63C2100F02CF8DE
:1013A0004FF0000000F038F803467B80BB884FF018
:1013B0000000194600F020F87A8845F63C239A424E
:1013C00002D14FF00103FB71FB79012B07D140F2F1
:1013D0007C13C2F200034FF001021A7006E040F2E3
:1013E0007C13C2F200034FF002021A70FB79184618
:1013F00007F10807BD4680BD80B483B000AF7860B8
:101400000B467B807B6803F150437A881A8007F192
:101410000C07BD4680BC704780B485B000AF7860D3
:101420004FF00003FB817B6803F150431B88FB8175
:10143000FB89184607F11407BD4680BC704700BF02
:1014400080B582B000AF4FF07E004FF0010102F096
:10145000CBF94FF002033B714FF002037B714FF069
:101460000003BB714FF00003FB714FF48060C4F2C6
:1014700002004FF005014FF00C0205F01DFD4FF486
:101480008060C4F202004FF006014FF00C0205F03C
:1014900013FD4FF060033B603B464FF48060C4F2A5
:1014A0000200194605F02CFC4FF40060C4F2020063
:1014B0004FF000014FF00C0205F0FEFC4FF001036D
:1014C0003B603B464FF40060C4F20200194605F051
:1014D00017FC4FF44060C4F202004FF000014FF0DF
:1014E0000C0205F0E9FC4FF44060C4F202004FF03A
:1014F00001014FF00C0205F0DFFC4FF44060C4F234
:1015000002004FF008014FF00C0205F0D5FC4FF43B
:101510004060C4F202004FF009014FF00C0205F0E8
:10152000CBFC4FF44060C4F202004FF00A014FF0D0
:101530000C0205F0C1FC4FF44060C4F202004FF011
:101540000E014FF00C0205F0B7FC4FF44060C4F2FE
:1015500002004FF00F014FF00C0205F0ADFC4CF211
:1015600003733B603B464FF44060C4F202001946EF
:1015700005F0C6FB4FF48050C4F202004FF00001AA
:101580004FF00C0205F098FC4FF48050C4F20200BA
:101590004FF001014FF00C0205F08EFC4FF480502B
:1015A000C4F202004FF007014FF00C0205F084FC7A
:1015B0004FF48050C4F202004FF008014FF00C02CB
:1015C00005F07AFC4FF48050C4F202004FF009019C
:1015D0004FF00C0205F070FC4FF48050C4F2020092
:1015E0004FF00A014FF00C0205F066FC4FF48050FA
:1015F000C4F202004FF00B014FF00C0205F05CFC4E
:101600004FF48050C4F202004FF00C014FF00C0276
:1016100005F052FC4FF48050C4F202004FF00D016F
:101620004FF00C0205F048FC4FF48050C4F2020069
:101630004FF00E014FF00C0205F03EFC4FF48050CD
:10164000C4F202004FF00F014FF00C0205F034FC21
:101650004FF683733B603B464FF48050C4F2020068
:10166000194605F04DFB4FF4A050C4F202004FF0B4
:1016700000014FF00C0205F01FFC4FF4A050C4F223
:1016800002004FF001014FF00C0205F015FC4FF481
:10169000A050C4F202004FF002014FF00C0205F01E
:1016A0000BFC4FF4A050C4F202004FF003014FF0C6
:1016B0000C0205F001FC4FF4A050C4F202004FF000
:1016C00004014FF00C0205F0F7FB4FF4A050C4F2F8
:1016D00002004FF005014FF00C0205F0EDFB4FF456
:1016E000A050C4F202004FF00B014FF00C0205F0C5
:1016F000E3FB4FF4A050C4F202004FF00C014FF096
:101700000C0205F0D9FB4FF4A050C4F202004FF0D8
:101710000D014FF00C0205F0CFFB4FF4A050C4F2C6
:1017200002004FF00E014FF00C0205F0C5FB4FF424
:10173000A050C4F202004FF00F014FF00C0205F070
:10174000BBFB4FF63F033B603B464FF4A050C4F257
:101750000200194605F0D4FA4FF4C050C4F202005A
:101760004FF000014FF00C0205F0A6FB4FF4C05003
:10177000C4F202004FF001014FF00C0205F09CFB97
:101780004FF4C050C4F202004FF004014FF00C02BD
:1017900005F092FB4FF4C050C4F202004FF0050177
:1017A0004FF00C0205F088FB4FF4C050C4F2020069
:1017B0004FF008014FF00C0205F07EFB4FF4C050D3
:1017C000C4F202004FF00F014FF00C0205F074FB61
:1017D00048F233133B603B464FF4C050C4F2020062
:1017E000194605F08DFA07F10807BD4680BD00BF18
:1017F00080B592B000AF4FF001004FF0010102F050
:101800001DF84FF002033B604FF007037B604FF081
:101810000403BB604FF00703FB604FF002033B6122
:101820004FF002037B614FF00203BB614FF00103F5
:10183000FB614FF000033B624FF004037B624FF00B
:101840001003BB624FF04003FB624FF4C0733B6375
:101850004FF000037B634FF40063BB634FF0000362
:10186000FB634FF400533B643B467B6407F11C036E
:10187000184606F0FFFA00F005F807F14807BD46E4
:1018800080BD00BF80B586B000AF4FF000037B6124
:101890004FF001037B604FF00803BB604FF0010382
:1018A000FB604FF000033B6100BF4FF001004FF0C1
:1018B000200106F0F7FB0346002BF6D107F10403E5
:1018C000184606F0B3FB4FF00A0000F075F84FF031
:1018D00002037B604FF00803BB604FF00103FB6025
:1018E0004FF000033B6100BF4FF001004FF02001BB
:1018F00006F0D8FB0346002BF6D107F10403184687
:1019000006F094FB4FF003037B604FF00803BB60CD
:101910004FF00403FB604FF000033B6100BF4FF04A
:1019200001004FF0200106F0BDFB0346002BF6D16D
:1019300007F10403184606F079FB00BF4FF00100E1
:101940004FF0200106F0AEFB0346002BF6D107F165
:101950000403184606F06AFB40F231237B614FF026
:1019600004037B604FF00803BB604FF00103FB6092
:101970007B693B6100BF4FF001004FF0200106F092
:1019800091FB0346002BF6D107F10403184606F03D
:101990004DFB40F2AB2006F06DFB00BF4FF00100A5
:1019A0004FF0200106F07EFB0346002BF6D107F135
:1019B0001807BD4680BD00BF80B485B000AF786019
:1019C0004FF00003FB607A6848F2A063C0F20103A5
:1019D00003FB02F3FB6003E0FB6803F1FF33FB60F2
:1019E000FB68002BF8D107F11407BD4680BC704797
:1019F00080B582B002AF40F27433C2F200034FF000
:101A000001021A7045F21873C2F200034FF000028F
:101A10001A6040F26433C2F200034FF000021A6011
:101A200045F2F473C2F200034FF000021A7045F25F
:101A3000F473C2F200034FF000025A7045F2F473DF
:101A4000C2F200034FF000029A7045F2F473C2F242
:101A500000034FF00002DA7045F2F473C2F20003A3
:101A60004FF000021A7140F26C33C2F200034FF0E3
:101A700000029A7040F26C33C2F200034FF0000291
:101A80001A7040F26C33C2F200034FF000025A7039
:101A900040F26C33C2F200034FF000029A8040F231
:101AA0006C33C2F200034FF00002DA8040F22C13D4
:101AB000C2F20003009345F2FC70C2F200004FF046
:101AC000000145F6A852C2F2000240F23803C2F209
:101AD000000304F0DDFBBD4680BD00BF80B500AF54
:101AE00040F27433C2F200031B78042B09D045F294
:101AF000FC70C2F2000045F6A851C2F2000104F0E9
:101B00002DFC40F27433C2F200031B78022B06D086
:101B100040F27433C2F200031B78032B1ED140F253
:101B20008013C2F200031B6803F1010240F280132C
:101B3000C2F200031A6040F28013C2F200031A6876
:101B40004AF22013C0F207039A420ED940F27433CE
:101B5000C2F200034FF004021A7006E040F2801354
:101B6000C2F200034FF000021A6040F27433C2F276
:101B700000031B78062B06D145F21873C2F200034E
:101B80004FF001021A6040F27433C2F200031B7876
:101B9000184680BD80B582B000AF40F28413C2F217
:101BA00000031B78002B7AD14FF400004FF00101A5
:101BB00001F06EFE40F20003C2F200039B6818467B
:101BC0004FF0010101F010FE40F20003C2F20003E9
:101BD0009B6918464FF0010101F006FE4FF400002A
:101BE0004FF0010101F0A8FE4FF400004FF000019A
:101BF00001F0A2FE40F20003C2F200031A6840F2B4
:101C00000003C2F200031B7B104619464FF004028A
:101C100005F052F940F20003C2F200031A6940F2E3
:101C20000003C2F200031B7F104619464FF0040266
:101C300005F042F94FF002033B714FF002037B7154
:101C40004FF00103BB714FF00003FB7140F2000342
:101C5000C2F200039B883B6040F20003C2F2000323
:101C60001A683B461046194605F04AF840F2000350
:101C7000C2F200039B8A3B6040F20003C2F2000301
:101C80001A693B461046194605F03AF800F062FA28
:101C900040F28413C2F200034FF001021A7007F100
:101CA0000807BD4680BD00BF80B584B000AF0246C6
:101CB0000B46FA71BB714FF000037B814FF4405328
:101CC000FB604FF4B840C4F200004FF0010106F091
:101CD00053FD4FF44053FB600DE0FB68002B04D034
:101CE000FB6803F1FF33FB6005E04FF0FF3000F0CD
:101CF0005DFA034622E14FF4B840C4F200004FF011
:101D00000101C1F2000106F0F7FD0346002BE4D00B
:101D10004FF4B840C4F200004FF0000106F08AFD15
:101D2000FB794FF4B840C4F2000019464FF00002AE
:101D300006F062FD4FF44053FB600DE0FB68002BA2
:101D400004D0FB6803F1FF33FB6005E06FF0010096
:101D500000F02CFA0346F1E04FF4B840C4F2000062
:101D60004FF00201C1F2000106F0C6FD0346002B50
:101D7000E4D04FF4B843C4F200031B8B4FF440533C
:101D8000FB600DE0FB68002B04D0FB6803F1FF3320
:101D9000FB6005E06FF0020000F008FA0346CDE0BA
:101DA0004FF4B840C4F200004FF08001C1F20001CE
:101DB00006F0A2FD0346002BE4D0BB794FF4B840F7
:101DC000C4F20000194606F079FD4FF44053FB6061
:101DD0000DE0FB68002B04D0FB6803F1FF33FB60D0
:101DE00005E06FF0030000F0E1F90346A6E04FF4D0
:101DF000B840C4F200004FF08001C1F2000106F0CB
:101E00007BFD0346002BE4D04FF4B840C4F2000041
:101E10004FF00401C1F2000106F06EFD0346002BF5
:101E2000D7D04FF4B840C4F200004FF0010106F0E3
:101E3000A3FC4FF44053FB600DE0FB68002B04D083
:101E4000FB6803F1FF33FB6005E06FF0040000F076
:101E5000ADF9034672E04FF4B840C4F200004FF011
:101E60000101C1F2000106F047FD0346002BE4D05A
:101E7000FB794FF4B840C4F2000019464FF001025C
:101E800006F0BAFC4FF44053FB600DE0FB68002BFA
:101E900004D0FB6803F1FF33FB6005E06FF0050041
:101EA00000F084F9034649E04FF4B840C4F2000062
:101EB0004FF00201C1F2000106F01EFD0346002BA7
:101EC000E4D04FF4B843C4F200031B8B4FF44053EB
:101ED000FB600DE0FB68002B04D0FB6803F1FF33CF
:101EE000FB6005E06FF0060000F060F9034625E0B6
:101EF0004FF4B840C4F200004FF04001C1F20001BD
:101F000006F0FAFC0346002BE4D04FF4B840C4F2CC
:101F100000004FF0010106F04FFC4FF4B840C4F24E
:101F2000000006F0DBFC03467B814FF4B840C4F2AE
:101F300000004FF0010106F07DFC7B891BB21846C2
:101F400007F11007BD4680BD80B584B000AF1346D1
:101F50000246FA710A46BA717B714FF000037B8129
:101F60004FF44053FB604FF4B840C4F200004FF010
:101F7000010106F001FC4FF44053FB600DE0FB68EB
:101F8000002B04D0FB6803F1FF33FB6005E04FF04A
:101F9000FF3000F00BF90346C0E04FF4B840C4F244
:101FA00000004FF00101C1F2000106F0A5FC03465C
:101FB000002BE4D0FB794FF4B840C4F2000019467E
:101FC0004FF0000206F018FC4FF44053FB600DE0A8
:101FD000FB68002B04D0FB6803F1FF33FB6005E0D6
:101FE0006FF0010000F0E2F8034697E04FF4B840CC
:101FF000C4F200004FF00201C1F2000106F07CFCC7
:102000000346002BE4D04FF4B843C4F200031B8B0B
:102010004FF44053FB600DE0FB68002B04D0FB68DD
:1020200003F1FF33FB6005E06FF0020000F0BEF843
:10203000034673E04FF4B840C4F200004FF0800153
:10204000C1F2000106F058FC0346002BE4D0BB7936
:102050004FF4B840C4F20000194606F02FFC4FF4CC
:102060004053FB600DE0FB68002B04D0FB6803F1DC
:10207000FF33FB6005E06FF0030000F097F80346C4
:102080004CE04FF4B840C4F200004FF08001C1F2C0
:10209000000106F031FC0346002BE4D07B794FF4BD
:1020A000B840C4F20000194606F008FC4FF4405353
:1020B000FB600DE0FB68002B04D0FB6803F1FF33ED
:1020C000FB6005E06FF0040000F070F8034625E0C7
:1020D0004FF4B840C4F200004FF08001C1F200019B
:1020E00006F00AFC0346002BE4D04FF4B840C4F2DB
:1020F00000004FF00401C1F2000106F0FDFB0346B1
:10210000002BD7D04FF4B840C4F200004FF00101CB
:1021100006F052FB4FF000037B817B891BB218460F
:1021200007F11007BD4680BD80B483B000AF786072
:1021300000BF7B68002B0CBF00220122D2B203F14A
:10214000FF337B60002AF4D107F10C07BD4680BC49
:10215000704700BF80B584B000AF4FF00003BB8074
:102160004BF6FF73FB804FF000033B814FF480631D
:102170007B814FF48043BB8148F2A063C0F201032E
:102180003B604FF4B840C4F200004FF0010106F08C
:10219000D3FA3B464FF4B840C4F20000194606F0AB
:1021A000F5F907F11007BD4680BD00BF80B584B0CA
:1021B00000AF0346FB80FB88FB814FF4B840C4F2BC
:1021C00000004FF0010106F0F7FA4FF4B840C4F2F6
:1021D00000004FF0010106F04DFB4FF4B840C4F28F
:1021E00000004FF0000106F045FB4FF4B840C4F288
:1021F000000006F087F9FFF7ADFFFB891BB2184618
:1022000007F11007BD4680BD80B582B000AF786091
:10221000F970BA707B70F878FB787A6803F53173DF
:102220004FEA4303D3189B88DBB203F07F03DAB293
:1022300079684FEA4013CB1803F56A735A71F8783E
:10224000FB787A6803F531734FEA4303D3189B8810
:1022500003F08003002B0CBF00230123DBB21A46DE
:1022600079684FEA4013CB1803F56A739A71FB78CB
:102270007A684FEA4313D31803F56A73BA781A7170
:10228000FB787A684FEA4313D31803F56A733A7CF4
:102290005A72FB787A684FEA4313D31803F56A73CE
:1022A000BA8A5A81FB787A684FEA4313D31803F548
:1022B0006A737A78DA71FB787A6803F11E034FEA61
:1022C0004313D3184FF000021A71FB787A6803F1B8
:1022D0001E034FEA4313D3184FF000025A717B7864
:1022E000002B09D1FB787A684FEA4313D31803F522
:1022F0006A734FF001021A72FB7878681946FEF78C
:102300009BFC4FF00003184607F10807BD4680BD4F
:1023100080B582B000AF7860F970BA707B70BB781E
:10232000002B08D0FB787A684FEA4313D31803F5E3
:102330006A73BA781A71FB787A684FEA4313D31834
:1023400003F56A735B89BA8A9A420BD0BB8A002B69
:1023500008D0FB787A684FEA4313D31803F56A7301
:10236000BA8A5A81FB787A684FEA4313D31803F587
:102370006A73DB797A789A420BD07B78002B08D08D
:10238000FB787A684FEA4313D31803F56A737A78B7
:10239000DA71FB7878681946FEF74EFC4FF00003BF
:1023A000184607F10807BD4680BD00BF80B584B060
:1023B00000AF78600B46FB70786800F065F8034664
:1023C000FB81FA894FF6FF739A420ED0F889FB78A9
:1023D0009BB26FEA43436FEA53439AB2796800F5C0
:1023E00031734FEA4303CB189A80FB89DBB218465E
:1023F00007F11007BD4680BD80B483B000AF7860A0
:102400000B46FB70FB78072B14D8F878FB787A68BA
:1024100003F531734FEA4303D3189B884FEA4343D4
:102420004FEA53439AB2796800F531734FEA430398
:10243000CB189A804FF00003184607F10C07BD46F1
:1024400080BC704780B485B000AF78604FF0020365
:10245000FB730DE0FB7B7A6803F531734FEA4303AE
:10246000D3184FF000029A80FB7B03F10103FB734A
:10247000FB7B072BEED94FF00003184607F114073A
:10248000BD4680BC704700BF80B485B000AF7860A7
:102490004FF00003FB734FF00003FB7312E0FB7B74
:1024A0007A6803F531734FEA4303D3189B889BB2D4
:1024B0001BB2002B02DBFB7B9BB208E0FB7B03F132
:1024C0000103FB73FB7B072BE9D94FF6FF7318461B
:1024D00007F11407BD4680BC704700BF80B58AB0C5
:1024E00000AF786039604FF000037B624FF000036B
:1024F0003B624FF00003FB614FF00003BB617B6860
:102500001B8A9BB27B627B6A23F440537B623B68ED
:10251000DB887A6A13437B627B6A9AB27B681A8291
:102520007B689B899BB27B627B6A23F4B05323F068
:102530000C037B623B689A883B681B8913439AB201
:102540003B685B8913439BB27A6A13437B627B6A65
:102550009AB27B689A817B689B8A9BB27B627B6A1A
:1025600023F440737B623B689B897A6A13437B62E6
:102570007B6A9AB27B689A8207F10803184601F0D9
:102580002BF87A684FF48053C4F201039A4206D0C4
:102590007A684FF4A053C4F201039A4202D17B69D6
:1025A0003B6201E03B693B627B689B899BB29BB2CB
:1025B0001BB2002B0FDA3A6A13464FEA83039B18CB
:1025C0004FEA83029A183B681B684FEA4303B2FB49
:1025D000F3F3FB610EE03A6A13464FEA83039B185C
:1025E0004FEA83029A183B681B684FEA8303B2FBE9
:1025F000F3F3FB61FA6948F21F53C5F2EB13A3FB37
:1026000002134FEA53134FEA03137B627B6A4FEACC
:1026100013134FF0640202FB03F3FA69D31ABB6190
:102620007B689B899BB29BB21BB2002B12DABB6901
:102630004FEAC30303F1320248F21F53C5F2EB1312
:10264000A3FB02134FEA531303F007037A6A134301
:102650007B6211E0BB694FEA031303F1320248F2D7
:102660001F53C5F2EB13A3FB02134FEA531303F0FE
:102670000F037A6A13437B627B6A9AB27B681A8182
:1026800007F12807BD4680BD80B483B000AF7860F5
:102690000B46FB70FB78002B08D07B689B899BB2B4
:1026A00043F400539AB27B689A8107E07B689B8968
:1026B0009BB223F400539AB27B689A8107F10C070E
:1026C000BD4680BC704700BF80B483B000AF786067
:1026D0000B46FB70FB78002B0AD07B689B899BB272
:1026E0006FEA43436FEA53439AB27B689A8109E0E9
:1026F0007B689B899BB24FEA43434FEA53439AB2AC
:102700007B689A8107F10C07BD4680BC704700BF0B
:1027100080B483B000AF78607B689B889BB24FEA3F
:10272000C3534FEAD3539BB2184607F10C07BD467B
:1027300080BC704780B487B000AF786013460A460B
:102740007A807B704FF000033B614FF00003FB6029
:102750004FF00003BB604FF000037B617B687B613F
:102760007B88DBB24FEA5313DBB23B617B8803F01B
:102770001F03FB60FB684FF0010202FA03F3BB602A
:102780003B69012B04D17B6903F10C037B610BE0F6
:102790003B69022B04D17B6903F110037B6103E0E9
:1027A0007B6903F114037B617B78002B06D07B6986
:1027B0007A691168BA680A431A6007E07B697A6926
:1027C0001168BA686FEA02020A401A6007F11C0732
:1027D000BD4680BC704700BF80B487B000AF786052
:1027E0000B467B804FF00003FB604FF000037B61E2
:1027F0004FF00003BB604FF00003FB747B88DBB23B
:102800004FEA5313DBB2BB607B8803F01F037B618D
:102810007B694FF0010202FA03F37B61BB68012B75
:1028200006D17B689B899BB27A6913407B610FE07C
:10283000BB68022B06D17B681B8A9BB27A69134066
:102840007B6105E07B689B8A9BB27A6913407B6160
:102850007B884FEA13239BB2FB60FB684FF00102B9
:1028600002FA03F3FB607B681B889BB2FA68134093
:10287000FB607B69002B06D0FB68002B03D04FF078
:102880000103FB7402E04FF00003FB74FB7C18466D
:1028900007F11C07BD4680BC704700BF80B588B0FB
:1028A00002AFF860B9601346FB71FB6803F58872EC
:1028B000FB799BB200920193F868B9684FF000026F
:1028C0004FF4807300F08EF80346FB75FB7D002B00
:1028D0000CD1BB6803F12201FB6803F58872FB7918
:1028E0009BB2084611461A4600F042F9FB7D184695
:1028F00007F11807BD4680BD90B589B002AFF860FA
:10290000B9601346FB804FF00003FB82FB6803F5C0
:1029100088730093FB880193F868B9684FF0000250
:102920004FF4007300F05EF803467B757B7D002B4F
:1029300023D10EE0FA8AFB8AF968CB1893F81011BC
:1029400045F62C63C2F200039954FB8A03F101039C
:10295000FB82FA8AFB889A42ECD3BB6803F134000D
:10296000BB6803F13E01BB6803F15002FB6803F54D
:102970008873FC88009400F073F97B7D184607F19A
:102980001C07BD4690BD00BF80B588B002AFF8609F
:10299000B9603B601346FB71FB799BB243F4407313
:1029A0009BB2FA6802F5887200923A8C0192F8683C
:1029B000B9684FF0000200F015F80346FB75FB7D87
:1029C000002B08D1FB6803F588723B8C10463968F0
:1029D0001A4600F0A5FAFB7D184607F11807BD4618
:1029E00080BD00BF80B584B000AFF860B960FA71F7
:1029F000BB80FB7963F07F03DAB2BB681A75BB68F2
:102A00004FF006025A75BB68BA88DA82BB8803F4B5
:102A10007F43B3F5407F04D1BB6840F209421A837B
:102A200003E0BB684FF000021A83BB68BA8B5A837D
:102A3000BB8BF868B968BA6905F09AFF0346184677
:102A400007F11007BD4680BD80B584B000AFF860C7
:102A5000B9601346FB71BB684FF000021A75BB6882
:102A60004FF005025A75FB799AB2BB68DA82BB68EF
:102A70004FF000021A83BB684FF000025A83F868D7
:102A8000B9684FF000024FF0000305F071FF0346F4
:102A9000184607F11007BD4680BD00BF80B584B061
:102AA00000AFF860B9601346FB80BB684FF00002CE
:102AB0001A75BB684FF009025A75BB68FA88DA824A
:102AC000BB684FF000021A83BB684FF000025A83C4
:102AD000F868B9684FF000024FF0000305F048FFB6
:102AE0000346184607F11007BD4680BD80B584B087
:102AF00000AFF860B960FA71BB71BB684FF00202B9
:102B00001A75BB684FF001025A75BB684FF000029E
:102B1000DA82FB799AB2BB681A83BB684FF0000275
:102B20005A83FB795BB2002B0ADABB79FA6803F1AE
:102B30001E034FEA4313D3184FF000021A7109E045
:102B4000BB79FA6803F11E034FEA4313D3184FF021
:102B500000025A71F868B9684FF000024FF00003A4
:102B600005F006FF0346184607F11007BD4680BD75
:102B700080B485B000AFF860B9601346FB80BB68D5
:102B80001A78FB681A70BB685A78FB685A70BB6881
:102B900003F102031B781A46BB6803F103031B7899
:102BA0004FEA03239BB2D3189AB2FB685A80BB68E2
:102BB0001A79FB681A71BB685A79FB685A71BB684D
:102BC0009A79FB689A71BB68DA79FB68DA71FB88DD
:102BD000082B3FD9BB6803F108031B781A46BB6872
:102BE00003F109031B784FEA03239BB2D3189AB26F
:102BF000FB681A81BB6803F10A031B781A46BB689D
:102C000003F10B031B784FEA03239BB2D3189AB24C
:102C1000FB685A81BB6803F10C031B781A46BB683A
:102C200003F10D031B784FEA03239BB2D3189AB22A
:102C3000FB689A81BB689A7BFB689A73BB68DA7BF6
:102C4000FB68DA73BB681A7CFB681A74BB685A7C31
:102C5000FB685A7407F11407BD4680BC704700BF7B
:102C600080B58CB000AFF860B9607A603B603B68BB
:102C7000FB624FF0000387F82A304FF0000387F81B
:102C80002B303B68FB623B681A78FB681A703B6824
:102C90005A78FB685A703B6803F102031B781A46A6
:102CA0003B6803F103031B784FEA03239BB2D3185D
:102CB0009AB2FB685A803B681A79FB681A713B68C4
:102CC0005A79FB685A713B689A79FB689A713B683C
:102CD000DA79FB68DA713B681A7AFB681A723B8F03
:102CE000092B40F2BC804FF009037B82FB681B7903
:102CF000022B00F2A6804FF000037B629BE007F1FD
:102D00001203F86A194600F045F9F862FB6A5B782D
:102D1000042B40F09080FB6A03F102031B7887F8D4
:102D20002A3097F92A2013464FEAC3039B18BA6842
:102D3000D3187B62FB6A03F103031B78022B7AD85A
:102D400007F114031846F96A00F08EF84FF00003FB
:102D500087F82B303B7E022B6DD865E007F112031C
:102D6000F86A194600F016F9F862FB6A5B78052BE1
:102D70005AD197F92A304FEA03137A68D21897F993
:102D80002B304FEAC303D3183B6240F28613C2F2E2
:102D900000031B781A4697F92A309A420DD097F80B
:102DA0002A2040F28613C2F200031A7007F11403BE
:102DB000786A194600F058F819E040F28813C2F218
:102DC00000031B881A46FB6A03F104031B781946AB
:102DD000FB6A03F105031B784FEA0323CB189A42E1
:102DE00028DC07F11403786A194600F03DF8386AC8
:102DF000F96A00F067F8FB6A03F104031B781A46CE
:102E0000FB6A03F105031B784FEA03239BB2D31837
:102E10009AB240F28813C2F200031A8097F82B305E
:102E200003F1010387F82B3097F92B203B7E9A4260
:102E300094DB00E000BFFB685A887B8A9A423FF629
:102E40005EAF40F28813C2F200034FF000021A8016
:102E500040F28613C2F200034FF000021A7007F12D
:102E60003007BD4680BD00BF80B483B000AF78603E
:102E700039603B681A787B681A703B685A787B68BF
:102E80005A703B689A787B689A703B68DA787B68FE
:102E9000DA703B681A797B681A713B685A797B68EB
:102EA0005A713B689A797B689A713B68DA797B68DA
:102EB000DA713B681A7A7B681A7207F10C07BD4613
:102EC00080BC704780B483B000AF786039603B68E5
:102ED0001A787B681A703B685A787B685A703B682E
:102EE0009A787B689A703B68DA787B68DA703B681E
:102EF00003F104031B781A463B6803F105031B78B2
:102F00004FEA03239BB2D3189AB27B689A803B683E
:102F10009A797B689A7107F10C07BD4680BC7047AF
:102F200080B487B000AFF860B9601346FB80FB68DF
:102F300003F101031B78032B26D1FB681B78A3F157
:102F40000202FB889A42B8BF1346BB82FB6803F1BA
:102F50000203FB604FF00003FB820DE0FB8AFA687E
:102F6000D3181A78BB681A70BB6803F10103BB6001
:102F7000FB8A03F10203FB82FA8ABB8A9A42EDD3F1
:102F8000BB684FF000021A7007F11C07BD4680BCF9
:102F9000704700BF80B485B000AF786039603B688F
:102FA0001A887B681B78D3189AB23B681A807B68B2
:102FB0001B787A68D318FB60FB68184607F1140782
:102FC000BD4680BC704700BF80B582B000AF4FF0F7
:102FD00000037B6005F0F6FE0346012B02D04FF0A4
:102FE00001037B6000F0A4FDFEF702FD01F09CFEF2
:102FF00001F096FD02F0FCFA02F046FB00F08CFABC
:103000007B68184607F10807BD4680BD80B489B0CB
:1030100000AF78604FF00003FB614FF00003BB612D
:103020004FF000037B614FF000033B614FF0000362
:10303000FB604FF00003BB604FF4D042C4F20102CA
:103040004FF4D043C4F2010399684FF47843CFF2B0
:1030500000030B4093607B681B694FEA0343FB61ED
:103060004FF4D043C4F201034FF4D042C4F2010242
:1030700091687A685069FA6902430A439A604FF48A
:10308000D042C4F201024FF4D043C4F20103D96824
:103090004FF47843CFF200030B40D3607B689B6909
:1030A0004FEA0343BB614FF4D043C4F201034FF432
:1030B000D042C4F20102D1687A68D069BA69024389
:1030C0000A43DA604FF4D042C4F201024FF4D04315
:1030D000C4F2010319694FF47843CFF200030B40A7
:1030E00013617B681B6A4FEA03437B614FF4D04353
:1030F000C4F201034FF4D042C4F2010211697A68AC
:10310000506A7A6902430A431A614FF4D042C4F20A
:1031100001024FF4D043C4F2010359694FF47843DC
:10312000CFF200030B4053617B689B6A4FEA034375
:103130003B614FF4D043C4F201034FF4D042C4F2D8
:10314000010251697A68D06A3A6902430A435A61B6
:103150004FF4D042C4F201024FF4D043C4F2010351
:10316000996948F68F03C0F6FE730B4093614FF4E4
:10317000D043C4F201034FF4D042C4F2010291697A
:103180007A6810687A68526810437A6892681043C7
:103190007A68D26802430A439A617B685B6B4FEAA4
:1031A0000323FB607B681B6B4FEA0343BB604FF458
:1031B000D043C4F201034FF4D042C4F20102D26AF8
:1031C00002F07F42DA624FF4D043C4F201034FF4BD
:1031D000D042C4F20102D16AB868FA6810437A6832
:1031E000926B02430A43DA6207F12407BD4680BCB2
:1031F000704700BF80B483B000AF0346FB71FB791A
:10320000002B0CD04FF4D043C4F201034FF4D04252
:10321000C4F20102926942F001029A610BE04FF49C
:10322000D043C4F201034FF4D042C4F201029269C8
:1032300022F001029A6107F10C07BD4680BC70477D
:1032400080B483B000AF0346FB71FB79002B0CD038
:103250004FF4D043C4F201034FF4D042C4F2010250
:10326000926942F480329A610BE04FF4D043C4F289
:1032700001034FF4D042C4F20102926922F4803279
:103280009A6107F10C07BD4680BC704780B483B0DB
:1032900000AF78604FF4D043C4F201037A685A62F9
:1032A00007F10C07BD4680BC704700BF80B489B0F1
:1032B00000AF786039604FF00003FB614FF000030E
:1032C000BB614FF000037B614FF000033B614FF0A7
:1032D0000003FB604FF00003BB603B685B684FEA94
:1032E0000343FB617B685B6803F470427B685A6050
:1032F0003B681A68FB691A437B685A603B68DB6865
:103300004FEA0343BB617B689B6803F470427B68B0
:103310009A603B689A68BB691A437B689A607B68CD
:103320001B6923F007027B681A613B681A697B6896
:103330001A613B68DB694FEA03237B613B681B6AC8
:103340004FEA03433B613B685B6A4FEA0363FB6000
:103350007B689B697B684FF000029A613B689A69C1
:103360007B691A433B691A43FB681A437B689A617D
:103370007B685B6923F0FF027B685A613B685A698E
:103380007B685A617B68DB6923F4E06323F0070301
:103390007A68D3613B689A6A3B68DB6A1A437B6848
:1033A000DA617B689B6A7B684FF000029A623B6837
:1033B0001A6B7B689A623B689B6B4FEA0343BB6066
:1033C0007B68DB6A03F0E0227B68DA623B685A6B59
:1033D000BB681A437B68DA627B681B6B23F4FF636C
:1033E00023F007037A6813633B68DA6B7B681A6320
:1033F00007F12407BD4680BC704700BF80B483B08E
:1034000000AF78600B46FB70FB78002B06D07B6822
:103410001B6843F001027B681A6005E07B681B684B
:1034200023F001027B681A6007F10C07BD4680BCDF
:10343000704700BF80B483B000AF78600B46FB706C
:10344000FA787B685A6107F10C07BD4680BC70476B
:1034500080B582B000AF4BF68453C0F600037B60AA
:1034600040F20003C2F200033B600BE07B681A6885
:103470003B681A603B6803F104033B607B6803F11F
:1034800004037B603A6840F27C13C2F200039A4264
:10349000ECD3084808494FF000028842B8BF40F812
:1034A000042BFFF6FAAF00F045F807F10807BD4618
:1034B00080BD00007C010020E060002080B400AFEF
:1034C000FEE700BF80B500AF04F0D6F980BD00BFB5
:1034D00080B582B000AF78607B681A7846F22C0322
:1034E000C2F20003DA707B685A7846F22C03C2F20B
:1034F00000031A707B689A7846F22C03C2F200032C
:103500005A7046F22C00C2F2000004F0F9F907F1FB
:103510000807BD4680BD00BF80B500AF02F026F9A8
:103520004FF0FF0002F05EF94FF0000002F034F9B6
:1035300080BD00BF80B586B002AF03F01BFEFFF771
:1035400043FD01F0FDFFF8603B4618464BF20C418D
:10355000C0F60001FA6800F0EFFE3B464FF00002B3
:1035600000924FF6FF7201924FF00A004FF00A01ED
:103570001A4640F2AC03C2F2000303F0A9FDE0E7F3
:1035800080B485B000AFF860B9607A604FF46053E2
:10359000C4F20203FA684FEA8211BA684FEA026283
:1035A00011437A684FEA02720A43C3F8882007F190
:1035B0001407BD4680BC704780B483B000AF03469B
:1035C000FB714FF07003C4F24723FA791A6007F1D8
:1035D0000C07BD4680BC704780B489B000AF7860EE
:1035E0004FF00003BB614FF000037B614FF000031D
:1035F000FB614FF002033B614FF00003FB604FF0B3
:103600000203BB604FF46053C4F202039B6803F0F3
:103610000C03BB61BB69042B0AD0082B0FD0002B15
:1036200060D17A684FF41053C0F2F403136060E085
:103630007A684FF49053C0F27A03136059E04FF464
:103640006053C4F202035B6803F480034FEA9353B0
:10365000FB604FF46053C4F202035B6803F03F0366
:10366000BB60FB68002B14D04FF49053C0F27A0378
:10367000BA68B3FBF2F24FF46053C4F20203596824
:1036800047F6C0730B404FEA931303FB02F3FB6151
:1036900013E04FF41053C0F2F403BA68B3FBF2F234
:1036A0004FF46053C4F20203596847F6C0730B40ED
:1036B0004FEA931303FB02F3FB614FF46053C4F230
:1036C00002035B6803F440334FEA134303F1010341
:1036D0004FEA43033B61FA693B69B2FBF3F27B6853
:1036E0001A6006E07A684FF41053C0F2F4031360D6
:1036F00000BF4FF46053C4F202039B6803F0F00371
:10370000BB61BB694FEA1313BB6140F22803C2F2ED
:103710000003BA699B181B78DBB27B617B681A686F
:103720007B6922FA03F27B685A604FF46053C4F25B
:1037300002039B6803F4E053BB61BB694FEA932328
:10374000BB6140F22803C2F20003BA699B181B78E0
:10375000DBB27B617B685A687B6922FA03F27B6883
:103760009A604FF46053C4F202039B6803F4604311
:10377000BB61BB694FEA5333BB6140F22803C2F21D
:103780000003BA699B181B78DBB27B617B685A68BF
:103790007B6922FA03F27B68DA6007F12407BD46F1
:1037A00080BC704780B485B000AF78604FF00003F4
:1037B000FB604FF46053C4F20203D3F88C30FB601B
:1037C000FB6823F44033FB60FA687B681343FB60BB
:1037D0004FF46053C4F20203FA68C3F88C2007F177
:1037E0001407BD4680BC704780B483B000AF7860DA
:1037F0000B46FB70FB78002B0CD04FF46053C4F2E7
:1038000002034FF46052C4F20202116B7A680A4359
:103810001A630DE04FF46053C4F202034FF4605298
:10382000C4F20202116B7A686FEA02020A401A635C
:1038300007F10C07BD4680BC704700BF80B483B061
:1038400000AF78600B46FB70FB78002B0CD04FF478
:103850006053C4F202034FF46052C4F20202916B4F
:103860007A680A439A630DE04FF46053C4F202038E
:103870004FF46052C4F20202916B7A686FEA02025E
:103880000A409A6307F10C07BD4680BC704700BF31
:1038900080B483B000AF78600B46FB70FB78002BE0
:1038A0000CD04FF46053C4F202034FF46052C4F2E0
:1038B0000202116C7A680A431A640DE04FF46053F7
:1038C000C4F202034FF46052C4F20202116C7A682F
:1038D0006FEA02020A401A6407F10C07BD4680BC79
:1038E000704700BF80B483B000AF78600B46FB70B8
:1038F000FB78002B0CD04FF46053C4F202034FF45A
:103900006052C4F20202516C7A680A435A640DE0B4
:103910004FF46053C4F202034FF46052C4F2020247
:10392000516C7A686FEA02020A405A6407F10C0788
:10393000BD4680BC704700BF80B483B000AF7860E4
:103940000B46FB70FB78002B0CD04FF46053C4F295
:1039500002034FF46052C4F20202116A7A680A4309
:103960001A620DE04FF46053C4F202034FF4605248
:10397000C4F20202116A7A686FEA02020A401A620D
:1039800007F10C07BD4680BC704700BF80B483B010
:1039900000AF78600B46FB70FB78002B0CD04FF427
:1039A0006053C4F202034FF46052C4F20202516A3F
:1039B0007A680A435A620DE04FF46053C4F202037E
:1039C0004FF46052C4F20202516A7A686FEA02024E
:1039D0000A405A6207F10C07BD4680BC704700BF21
:1039E00080B487B000AF0346FB714FF00003FB606B
:1039F0004FF000037B614FF00003FB74FB794FEA4B
:103A00005313DBB2FB60FB68012B06D14FF460530C
:103A1000C4F202031B687B610FE0FB68022B06D136
:103A20004FF46053C4F202031B6F7B6105E04FF457
:103A30006053C4F202035B6F7B61FB7903F01F03E9
:103A4000FB60FB687A6922FA03F303F00103002BA1
:103A500003D04FF00103FB7402E04FF00003FB744E
:103A6000FB7C184607F11C07BD4680BC704700BFB1
:103A700080B483B000AF03463960FB7197F907301B
:103A8000002B10DA4FF46D43CEF20003FA7902F006
:103A90000F02A2F104013A68D2B24FEA0212D2B286
:103AA0005B181A760DE04FF46143CEF2000397F9EC
:103AB00007103A68D2B24FEA0212D2B25B1883F80A
:103AC000002307F10C07BD4680BC704780B582B06B
:103AD00000AF78607B6803F1FF326FF07F439A425A
:103AE00002D94FF001031DE04EF21003CEF20003A5
:103AF0007A6802F1FF325A604FF0FF304FF00F0149
:103B0000FFF7B6FF4EF21003CEF200034FF00002B3
:103B10009A604EF21003CEF200034FF007021A60D3
:103B20004FF00003184607F10807BD4680BD00BFEF
:103B300080B584B000AF40F28C13C2F200034FF0A6
:103B400000021A6040F27833C2F200034FF0000224
:103B50001A6045F2F073C2F200034FF000021A60DF
:103B600040F26833C2F200034FF000021A6045F2DF
:103B70002863C2F200034FF000021A6040F2D8330B
:103B8000C2F200034FF000021A6040F21843C2F282
:103B900000034FF001021A703B461846FFF71CFD68
:103BA0007A6844F6D353C1F26203A3FB02134FEACF
:103BB00093131846FFF78AFF07F11007BD4680BD33
:103BC00080B500AF40F28C13C2F200031B68002BDB
:103BD0000BD040F28C13C2F200031B6803F1FF32DA
:103BE00040F28C13C2F200031A60FDF777FF034620
:103BF0001A4640F21843C2F200031A7040F27833BA
:103C0000C2F200031B68002B0BD040F27833C2F2E3
:103C100000031B6803F1FF3240F27833C2F2000365
:103C20001A6040F26833C2F200031B68002B0BD00D
:103C300040F26833C2F200031B6803F1FF3240F226
:103C40006833C2F200031A6040F2D833C2F20003B4
:103C50001B68002B0BD040F2D833C2F200031B6864
:103C600003F1FF3240F2D833C2F200031A6045F28A
:103C7000F073C2F200031B68002B0BD045F2F07307
:103C8000C2F200031B6803F1FF3245F2F073C2F287
:103C900000031A6045F22863C2F200031B68002B80
:103CA0000BD045F22863C2F200031B6803F1FF3218
:103CB00045F22863C2F200031A6045F22C63C2F297
:103CC00000031B68002B0BD045F22C63C2F20003EB
:103CD0001B6803F1FF3245F22C63C2F200031A6045
:103CE00040F25C33C2F200031B68002B0BD040F2A1
:103CF0005C33C2F200031B6803F1FF3240F25C3315
:103D0000C2F200031A6040F21823C2F200031B68DB
:103D1000002B0BD040F21823C2F200031B6803F102
:103D2000FF3240F21823C2F200031A6080BD00BFC8
:103D300080B483B000AF78600B46FB707B68FA7884
:103D40001A704FF00103184607F10C07BD4680BCFE
:103D5000704700BF80B485B000AF786039604FF025
:103D60000003FB600FE03B681A787B681A707B6881
:103D700003F101037B603B6803F101033B60FB68D7
:103D800003F10103FB603B681B78002BEBD1FB6860
:103D9000184607F11407BD4680BC704780B586B051
:103DA00000AFF8607A603B600B46FB724FF0000397
:103DB0007B617B6803F1FF337B603B68092B25D96E
:103DC0003A684CF6CD43CCF6CC43A3FB02134FEA42
:103DD000D303FA7AF86811467A68FFF7DFFF786153
:103DE0007B69FA68D318FB6013E0FB7AF868194620
:103DF000FFF79EFFFB6803F10103FB607B6903F1A2
:103E000001037B617B6803F1FF337B607B68002BE0
:103E1000EBDC39684CF6CD43CCF6CC43A3FB012355
:103E20004FEAD30213464FEA83039B184FEA43033A
:103E3000CA1AD3B203F13003DBB2F8681946FFF7B0
:103E400077FF03467A69D3187B617B69184607F1CF
:103E50001807BD4680BD00BF80B586B000AFF860D2
:103E60007A603B600B46FB724FF000037B613B685E
:103E7000002B04DA3B68C3F100033B6101E03B68BF
:103E80003B617B6803F1FF337B603B69092B2AD9D7
:103E90003B68002B12DA3A694CF6CD43CCF6CC43A2
:103EA000A3FB02134FEAD303C3F10003FA7AF868C5
:103EB00011467A68FFF7D0FF78610FE03A694CF657
:103EC000CD43CCF6CC43A3FB02134FEAD303FA7ADB
:103ED000F86811467A68FFF7BFFF78617B69FA6876
:103EE000D318FB602BE03B68002B15DA7B6803F1ED
:103EF000FF337B6010E0FB7AF8681946FFF718FF84
:103F0000FB6803F10103FB607B6903F101037B6143
:103F10007B6803F1FF337B607B68002BEBDC3B6845
:103F2000002B0CDAF8684FF02D01FFF701FF034674
:103F30007A69D3187B61FB6803F10103FB6039697F
:103F40004CF6CD43CCF6CC43A3FB01234FEAD3027E
:103F500013464FEA83039B184FEA4303CA1AD3B2AE
:103F600003F13003DBB2F8681946FFF7E1FE0346C0
:103F70007A69D3187B617B69184607F11807BD463B
:103F800080BD00BF80B588B002AFF8607A600A4695
:103F9000FA72BB724FF000037B617B6803F1FF3361
:103FA0007B603B6A4FEA1313002B24D03B6A4FEA35
:103FB0001311FA7ABB7A0091F86811467A68FFF714
:103FC000E1FF03467A69D3187B617B69FA68D318ED
:103FD000FB6013E0FB7AF8681946FFF7A9FEFB685F
:103FE00003F10103FB607B6903F101037B617B68E3
:103FF00003F1FF337B607B68002BEBDC3B6A03F053
:104000000F03092B0CD83B6ADBB203F00F03DBB2C2
:1040100003F13003DBB2F8681946FFF789FE1BE0B5
:10402000BB7A002B0CD03B6ADBB203F00F03DBB290
:1040300003F13703DBB2F8681946FFF779FE0BE0AE
:104040003B6ADBB203F00F03DBB203F15703DBB2D1
:10405000F8681946FFF76CFE7B6903F101037B6189
:104060007B69184607F11807BD4680BD80B58AB048
:1040700002AFF860B9607A603B604FF00003BB614B
:104080004FF000037B61FB68002B00F01C81FB6894
:104090004FF000021A7016E17B681B78252B10D0B8
:1040A0007B681A78FB681A70FB6803F10103FB60F8
:1040B0007B6803F101037B607B6903F101037B6192
:1040C00002E17B6803F101031B78252B10D1FB680B
:1040D0004FF025021A70FB6803F10103FB607B6857
:1040E00003F102037B607B6903F101037B61EBE079
:1040F0004FF02003FB774FF00003BB777B6803F1A1
:1041000001037B607B681B78302B1BD14FF03003A1
:10411000FB777B6803F101037B6013E0BB7F1A46EA
:104120004FEA8202D3184FEA4303DAB27B681B7866
:10413000D318DBB2A3F13003BB777B6803F1010333
:104140007B6000E000BF7B681B782F2B03D97B6866
:104150001B78392BE2D9BA7F7B69D3181A46BB6822
:104160009A4205D9BB68DAB27B69DBB2D31ABB7756
:104170007B681B78A3F15803202B00F2948001A2E6
:1041800052F823F059420008A7420008A74200084D
:10419000A7420008A7420008A7420008A74200085B
:1041A000A7420008A7420008A7420008A74200084B
:1041B0008F42000809420008A7420008A7420008F1
:1041C000A7420008A742000809420008A7420008C9
:1041D000A7420008A7420008A7420008A74200081B
:1041E000A7420008A7420008A7420008A74200080B
:1041F00079420008A742000821420008A7420008AF
:10420000A742000839420008BA7F3B6803F1040165
:1042100039601B68F97FF868FFF71EFEB86145E05A
:10422000BA7F3B6803F1040139601B68F97FF868C5
:10423000FFF7B4FDB86139E0BA7F3B6803F10401D0
:1042400039601968FB7F0091F86819464FF0000348
:10425000FFF798FEB86129E0BA7F3B6803F10401DB
:1042600039601968FB7F0091F86819464FF0010327
:10427000FFF788FEB86119E03B6803F104023A6079
:104280001B68F8681946FFF765FDB8610EE03B68EA
:1042900003F104023A601B68DBB2F8681946FFF7C5
:1042A00047FDB86102E04FF0FF332CE07B6803F17B
:1042B00001037B60BB69FA68D318FB607A69BB694C
:1042C000D3187B6100E000BF7B681B78002B04D013
:1042D0007A69BB689A42FFF4DFAE7A69BB689A429A
:1042E00004D2FB684FF000021A700BE0FB6803F188
:1042F000FF33FB60FB684FF000021A707B6903F12B
:10430000FF337B617B69184607F12007BD4680BDFE
:1043100080B584B000AFF860B9607A60F8684FF09B
:104320006401BA687B68FFF7A1FE0346184607F1EF
:104330001007BD4680BD00BF0EB480B585B000AF8C
:10434000786007F12003BB607868F969BA68FFF705
:10435000DFFFF860FB68184607F11407BD46BDE8AB
:10436000804003B0704700BF90B589B002AF78605D
:1043700039603B683B614FF00003FB754FF0010370
:10438000BB7546F27803C2F200034FF0060283F8D1
:1043900042203B6993F84430012B40F0FD803B699B
:1043A00093F84530012B09D146F27803C2F200039D
:1043B00040F27412C2F200021A650DE03B6993F8F4
:1043C0004530022B08D146F27803C2F2000340F2D6
:1043D0002002C2F200021A6546F27803C2F200031C
:1043E0004FF0000283F8422046F27803C2F2000345
:1043F0004FF0000283F845203B6993F8522046F2C3
:104400007803C2F2000383F848203B69B3F85420D4
:1044100046F27803C2F20003A3F846203B6993F802
:1044200056301A4646F27803C2F20003A3F84A2037
:1044300046F27803C2F20003B3F84A30092B07D8DA
:1044400046F27803C2F200034FF00A02A3F84A20B2
:104450003B6993F84230022B28BF0223FB734FF0D5
:104460000003FB7588E0FB7D3A6903F10A034FEA1C
:10447000C303D3189B78DBB25BB2002B3CDAFB7D25
:104480003A6903F10A034FEAC303D3189A7846F254
:104490007803C2F2000383F84420FB7D3A6903F1FC
:1044A0000A034FEAC303D3189B7878681946FDF7CF
:1044B0007DFF03461A4646F27803C2F2000383F8F2
:1044C000402046F27803C2F2000393F840103B69A3
:1044D00093F820203B6993F8214046F27803C2F21A
:1044E0000003B3F846304FF0030000900193786862
:1044F0002346FDF789FE3BE0FB7D3A6903F10A03A1
:104500004FEAC303D3189A7846F27803C2F2000345
:1045100083F84320FB7D3A6903F10A034FEAC303A2
:10452000D3189B7878681946FDF740FF03461A4672
:1045300046F27803C2F2000383F8412046F2780382
:10454000C2F2000393F841103B6993F820203B69C5
:1045500093F8214046F27803C2F20003B3F84630E4
:104560004FF003000090019378682346FDF74CFE5E
:10457000FB7D03F10103FB75FA7DFB7B9A42FFF49F
:1045800072AF40F29013C2F200034FF000021A70B3
:104590004FF00003BB7504E03B69D3F880301B6C1F
:1045A0009847BB7D184607F11C07BD4690BD00BF6C
:1045B00080B582B000AF7860396046F27803C2F20D
:1045C000000393F84030002B1BD046F27803C2F270
:1045D000000393F8403078681946FCF71BFE46F25A
:1045E0007803C2F2000393F8403078681946FDF76B
:1045F00003FF46F27803C2F200034FF0000283F893
:10460000402046F27803C2F2000393F84130002BB9
:104610001BD046F27803C2F2000393F84130786869
:104620001946FCF7F7FD46F27803C2F2000393F84F
:10463000413078681946FDF7DFFE46F27803C2F292
:1046400000034FF0000283F8412040F29013C2F2C1
:1046500000034FF000021A7007F10807BD4680BD45
:1046600080B586B000AF786039603B683B614FF041
:104670000103FB754FF00103FB7346F27803C2F2AE
:10468000000393F84530042B75D801A252F823F0AB
:10469000A5460008DD460008A546000809470008B1
:1046A0004D470008786839694FF0090200F07AF93F
:1046B0000346002B61D17B6803F5887346F2CC007A
:1046C000C2F20000194600F0EDF946F27803C2F29A
:1046D00000034FF0010283F845204EE046F2CC0380
:1046E000C2F200031B89786839691A4600F03CF968
:1046F0000346002B43D146F27803C2F200034FF089
:10470000030283F845203AE0786839694FF00002E7
:104710004FF0000300F064F90346FB73FB7B002BB2
:1047200008D146F27803C2F200034FF0040283F886
:10473000452026E0FB7B032B23D146F27803C2F20F
:1047400000034FF0040283F845201AE078683969C5
:104750004FF0000200F074F90346002B13D146F22B
:104760007803C2F200034FF0000283F845204FF0B7
:104770000003FB7507E000BF06E000BF04E000BFD8
:1047800002E000BF00E000BFFB7D184607F11807FC
:10479000BD4680BD80B584B000AF786039603B68AD
:1047A000FB604FF00003FB7246F27803C2F2000395
:1047B00093F84230052B00F2CB8001A252F823F08F
:1047C000D947000851490008514900081748000816
:1047D000F74700087548000846F27803C2F2000364
:1047E0001B6D1B68984746F27803C2F200034FF036
:1047F000040283F842207868FCF710F90346012B85
:1048000040F0A88046F27803C2F200034FF00302A2
:1048100083F842209EE046F27803C2F20003B3F828
:104820004630DAB246F27803C2F2000393F8403021
:10483000786846F27801C2F2000104F0C7F940F24C
:104840009013C2F200034FF001021A7046F278038F
:10485000C2F200034FF0050283F84220786803F0AB
:10486000EBFC03469AB246F27803C2F20003A3F8C7
:104870004C2072E0786803F0DFFC024646F27803D1
:10488000C2F20003B3F84C309BB2D21A46F278035E
:10489000C2F20003B3F84A309A4208D346F27803D2
:1048A000C2F200034FF0030283F8422054E046F2C4
:1048B0007803C2F2000393F840307868194603F099
:1048C000CDFC0346012B1AD140F29013C2F2000333
:1048D0001B78DBB2012B3FD140F29013C2F20003F0
:1048E0004FF000021A7046F27803C2F200031B6D0B
:1048F0005B6846F27800C2F2000098472CE046F26E
:104900007803C2F2000393F840307868194603F048
:10491000A5FC0346042B1FD146F27803C2F2000324
:1049200093F8482046F27803C2F2000393F840302F
:104930007868F968FEF7DAF80346002B0CD146F2E6
:104940007803C2F200034FF0030283F8422003E031
:1049500000BF02E000BF00E000BFFB7A184607F18D
:104960001007BD4680BD00BF80B588B002AFF860BB
:10497000B9601346FB80FB6803F588730093FB88DE
:104980000193F868B9684FF001024FF40853FEF73D
:1049900029F80346FB75FB7D184607F11807BD464D
:1049A00080BD00BF80B588B002AFF860B960134623
:1049B000FB80FB6803F588730093FB880193F8681C
:1049C000B9684FF001024FF40453FEF70BF80346A9
:1049D000FB75FB7D184607F11807BD4680BD00BF7B
:1049E00080B584B000AFF860B960FA71BB71BB6884
:1049F0004FF021021A75BB684FF00A025A75FB7915
:104A00004FEA03239AB2BB799BB213439BB29AB28B
:104A1000BB68DA82BB684FF000021A83BB684FF0B4
:104A200000025A83F868B9684FF000024FF00003A3
:104A300003F09EFF0346184607F11007BD4680BDF0
:104A400080B584B000AFF860B9601346FB71BB68F5
:104A50004FF021021A75BB684FF00B025A75FB79B3
:104A6000002B04D0BB684FF00002DA8203E0BB6881
:104A70004FF00102DA82BB684FF000021A83BB6874
:104A80004FF000025A83F868B9684FF000024FF007
:104A9000000303F06DFF0346184607F11007BD46FB
:104AA00080BD00BF80B483B000AF786039603B68E0
:104AB0001A787B681A703B685A787B685A703B6832
:104AC00003F102031B781A463B6803F103031B78CA
:104AD0004FEA03239BB2D3189AB27B685A803B6893
:104AE0001A797B681A713B685A797B685A713B68FE
:104AF0009A797B689A713B6803F107031B781A4621
:104B00003B6803F108031B784FEA03239BB2D318D9
:104B10009AB27B681A8107F10C07BD4680BC7047CA
:104B200080B584B000AF4FF00003FB734FE0F97B1A
:104B300040F24802C2F200020B464FEA83035B18C0
:104B40004FEA8303D31803F10C031B6818464FF098
:104B50000101FEF749FE4FF000033B72F97B40F282
:104B60004802C2F200020B464FEA83035B184FEA89
:104B70008303D31803F110031B78FB72F97B40F217
:104B80004802C2F200020B464FEA83035B184FEA69
:104B90008303D31803F108031B887B60F97B40F281
:104BA0004802C2F200020B464FEA83035B184FEA49
:104BB0008303D31803F104031A6807F104031046B2
:104BC000194602F09DF8FB7B03F10103FB73FB7BAD
:104BD000042BACD900F006F800F036F807F1100706
:104BE000BD4680BD80B584B000AF4FF020004FF0CF
:104BF0000101FEF74DFE41F28733BB6040F2833383
:104C0000BB804FF00003BB814FF00003FB8007F136
:104C100004034FF4A050C4F20000194604F0B0FBA6
:104C20004FF4A050C4F200004FF0010104F022FC48
:104C30004FF4A050C4F200004FF0010104F03AFC20
:104C400007F11007BD4680BD80B582B000AF4FF4BC
:104C5000A050C4F200004FF001014FF0010204F037
:104C600049FC4FF037033B714FF000037B714FF06D
:104C70000003BB714FF00103FB7107F104031846F9
:104C800004F02EF807F10807BD4680BD80B582B05C
:104C900000AF4FF4A050C4F200004FF0010104F047
:104CA0004DFC4FF00003FB7136E0F97940F2480209
:104CB000C2F200020B464FEA83035B184FEA8303FC
:104CC000D31803F104031868F97940F24802C2F2DC
:104CD00000020B464FEA83035B184FEA8303D318A5
:104CE00003F108031B88194602F0ACF80346BB71B8
:104CF000F97940F24802C2F200020B464FEA830300
:104D00005B184FEA8303D31803F11003BA795A7082
:104D1000FB7903F10103FB71FB79042BC5D907F182
:104D20000807BD4680BD00BF90B589B000AF4FF009
:104D30000003FB77F2E1F97F40F2B402C2F2000215
:104D40000B464FEAC3035B1A4FEAC303D31803F1C0
:104D500020031B6818464FF00101FEF745FDF97F5F
:104D600040F2B402C2F200020B464FEAC3035B1AE0
:104D70004FEAC303D31803F130031B6818464FF002
:104D80000101FEF731FDF97F40F2B402C2F20002E8
:104D90000B464FEAC3035B1A4FEAC303D31803F170
:104DA0000C031A684FF48053C4F201039A4214D0E2
:104DB000F97F40F2B402C2F200020B464FEAC3038D
:104DC0005B1A4FEAC303D31803F10C031A684FF4BC
:104DD000A053C4F201039A4214D1F97F40F2B40205
:104DE000C2F200020B464FEAC3035B1A4FEAC30349
:104DF000D31803F104031B6818464FF00101FEF7B6
:104E000071FD13E0F97F40F2B402C2F200020B46DA
:104E10004FEAC3035B1A4FEAC303D31803F1040339
:104E20001B6818464FF00101FEF732FDF97F40F292
:104E3000B402C2F200020B464FEAC3035B1A4FEA08
:104E4000C303D31803F118031868F97F40F2B402C2
:104E5000C2F200020B464FEAC3035B1A4FEAC303D8
:104E6000D31803F120031B791C46F97F40F2B402EA
:104E7000C2F200020B464FEAC3035B1A4FEAC303B8
:104E8000D31803F108031B7821461A4602F014F8E0
:104E9000F97F40F2B402C2F200020B464FEAC303AC
:104EA0005B1A4FEAC303D31803F128031868F97F8C
:104EB00040F2B402C2F200020B464FEAC3035B1A8F
:104EC0004FEAC303D31803F130031B791C46F97F63
:104ED00040F2B402C2F200020B464FEAC3035B1A6F
:104EE0004FEAC303D31803F108031B7821461A467F
:104EF00001F0E2FF4FF002033B764FF003037B76B5
:104F00004FF00003BB764FF00103FB76F97F40F2D0
:104F1000B402C2F200020B464FEAC3035B1A4FEA27
:104F2000C303D31803F118039B887B61F97F40F218
:104F3000B402C2F200020B464FEAC3035B1A4FEA07
:104F4000C303D31803F118031A6807F114031046BA
:104F5000194601F0D5FEF97F40F2B402C2F2000218
:104F60000B464FEAC3035B1A4FEAC303D31803F19E
:104F700028039B887B61F97F40F2B402C2F20002F1
:104F80000B464FEAC3035B1A4FEAC303D31803F17E
:104F900028031A6807F114031046194601F0B0FE01
:104FA000F97F40F2B402C2F200020B464FEAC3039B
:104FB0005B1A4FEAC303D31803F10C031B681846AE
:104FC0004FF00101FDF780FBF97F40F2B402C2F21D
:104FD00000020B464FEAC3035B1A4FEAC303D31820
:104FE00003F110031B687B604FF000033B814FF01F
:104FF00000037B814FF00003BB814FF000033B8235
:105000004FF00C03FB81F97F40F2B402C2F20002C0
:105010000B464FEAC3035B1A4FEAC303D31803F1ED
:105020000C031A6807F1040310461946FDF756FAF7
:10503000F97F40F2B402C2F200020B464FEAC3030A
:105040005B1A4FEAC303D31803F10C031B6818461D
:105050004FF00101FDF718FBF97F40F2B402C2F2F4
:1050600000020B464FEAC3035B1A4FEAC303D3188F
:1050700003F10C031B68184640F225514FF0010262
:10508000FDF758FBF97F40F2B402C2F200020B4672
:105090004FEAC3035B1A4FEAC303D31803F11003AB
:1050A0001B793B704FF000037B704FF00003BB7027
:1050B0004FF00103FB703B46184603F011FEFA7FE8
:1050C00045F26C63C2F200034FF0340101FB02F2BF
:1050D0009B184FF00D021A70FA7F45F26C63C2F212
:1050E00000034FF0340101FB02F29B1803F130037F
:1050F0004FF000029A70FA7F45F26C63C2F200032F
:105100004FF0340101FB02F29B1803F130034FF022
:105110000002DA70FB7F03F10103FB77FB7F002BBA
:105120003FF409AE07F12407BD4690BD80B485B0B9
:1051300000AF03463960FB714FF00003FB73FA794F
:1051400045F26C63C2F200034FF0340101FB02F23E
:105150009B1803F13003DB78012B54D14FF001038E
:10516000FB734FF00003BB73F979BA7B45F26C63B4
:10517000C2F200034FF0340000FB01F18A189B18C3
:105180001B787B737B7B0D2B08D0BB7B3A68D318D5
:105190007A7B1A70BB7B03F10103BB737B7B0D2B06
:1051A000E2D1BB7B3A68D3184FF000021A70FA794B
:1051B00045F26C63C2F200034FF0340101FB02F2CE
:1051C0009B184FF00D021A70FA7945F26C63C2F227
:1051D00000034FF0340101FB02F29B1803F130038E
:1051E0004FF000029A70FA7945F26C63C2F2000344
:1051F0004FF0340101FB02F29B1803F130034FF032
:105200000002DA703CE0FA7945F26C63C2F2000306
:105210004FF0340101FB02F29B1803F13003DB78FD
:10522000022B2DD14FF00203FB73FA7945F26C6328
:10523000C2F200034FF0340101FB02F29B184FF061
:105240000D021A70FA7945F26C63C2F200034FF056
:10525000340101FB02F29B1803F130034FF000020E
:105260009A70FA7945F26C63C2F200034FF0340190
:1052700001FB02F29B1803F130034FF00002DA70D9
:10528000FB7B184607F11407BD4680BC704700BF82
:1052900090B482B000AF02460B46FA71BB80FA7937
:1052A00045F26C63C2F200034FF0340101FB02F2DD
:1052B0009B1803F130039B78312B7CD8FA7945F2A7
:1052C0006C63C2F200034FF0340101FB02F29B1841
:1052D00003F13003DB78002B7CD1BB881F2B3BD93B
:1052E000BB887E2B38D8F879FA7945F26C63C2F224
:1052F00000034FF0340101FB02F29B1803F130036D
:105300009B781946BB88DAB245F26C63C2F200039F
:105310004FF0340404FB00F041185B181A70FA795E
:1053200045F26C63C2F200034FF0340101FB02F15D
:105330005B1803F130039B7803F10103D9B245F206
:105340006C63C2F200034FF0340000FB02F29B18C2
:1053500003F130030A469A70BB880D2B3AD1F879D5
:10536000FA7945F26C63C2F200034FF0340101FB9D
:1053700002F29B1803F130039B781946BB88DAB21E
:1053800045F26C63C2F200034FF0340404FB00F0FA
:1053900041185B181A70FA7945F26C63C2F2000387
:1053A0004FF0340101FB02F29B1803F130034FF080
:1053B0000102DA700EE0FA7945F26C63C2F2000382
:1053C0004FF0340101FB02F29B1803F130034FF060
:1053D0000202DA7007F10807BD4690BC704700BFB3
:1053E00080B584B000AF02460B46FA71BB804FF027
:1053F0000003FB731CE0F97B40F2B402C2F200022E
:105400000B464FEAC3035B1A4FEAC303D31803F1F9
:1054100010031B79FA799A4206D1FA7BBB881046B1
:105420001946FFF735FF06E0FB7B03F10103FB7331
:10543000FB7B002BDFD007F11007BD4680BD00BF0E
:1054400080B582B000AF4FF48050C4F2010040F24A
:105450002551FDF7C1F90346012B0DD14FF48050C2
:10546000C4F20100FDF754F90346FB80FB884FF0BE
:1054700025001946FFF7B4FF07F10807BD4680BDB8
:1054800080B582B000AF4FF48840C4F2000040F213
:105490002551FDF7A1F90346012B0DD14FF48840AA
:1054A000C4F20000FDF734F90346FB80FB884FF09F
:1054B00026001946FFF794FF07F10807BD4680BD97
:1054C00080B582B000AF4FF49040C4F2000040F2CB
:1054D0002551FDF781F90346012B0DD14FF4904082
:1054E000C4F20000FDF714F90346FB80FB884FF07F
:1054F00027001946FFF774FF07F10807BD4680BD76
:1055000080B582B000AF4FF4A050C4F2010040F269
:105510002551FDF761F90346012B0DD14FF4A05041
:10552000C4F20100FDF7F4F80346FB80FB884FF05E
:1055300047001946FFF754FF07F10807BD4680BD35
:1055400080B590B000AF07F104034FF0000019469A
:10555000FFF7ECFD034687F83F3097F83F30012B0B
:1055600037D107F1040318464BF68431C0F6000129
:1055700005F05AFCB863BB6B002B02D14FF0FF3330
:1055800030E0BB6B03F10803BB63BB6B1B7887F890
:10559000373097F83730A3F13003032B16D801A228
:1055A00052F823F0B5550008BB550008C155000856
:1055B000C75500084FF0000314E04FF0010311E05D
:1055C0004FF002030EE04FF003030BE04FF0FF3308
:1055D00008E097F83F30022B02D14FF0FF3301E093
:1055E0004FF0FF33184607F14007BD4680BD00BFAE
:1055F00080B582B000AF4FF00003FB7100F0FCF902
:105600004FF0000001F0F0FE00F0D4FA40F26033F9
:10561000C2F200034FF000021A70FBF797FE00F091
:1056200031FA4FF00103FB7140F29413C2F2000310
:105630004FF000021A8040F29613C2F200034FF0BE
:1056400000021A8040F29813C2F200034FF00002E9
:105650001A6045F25873C2F200034FF050421A60CC
:1056600040F21423C2F200034FF000021A6040F22D
:105670007C33C2F200034FF000021A60FB79184637
:1056800007F10807BD4680BD80B590B000AF4FF070
:105690001E033B6040F20D137B604FF00403BB60C0
:1056A00040F24313FB604FF002033B614FF0FF03F6
:1056B0007B614FF00003BB614FF00003FB614FF0D3
:1056C00000033B624FF000037B624FF48063BB62D8
:1056D0004FF00503FB6240F2E3137B634FF4F0737A
:1056E000BB634FF4A073FB634FF050433B633B46F7
:1056F00046F68400C4F201001946FDF7D7FD4FF4C9
:10570000B043CDF202033B634FF4C063BB624FF082
:105710000703FB623B4646F60410C4F2010019463B
:10572000FDF7C4FD4FF00100FDF7B0FD46F6840023
:10573000C4F201004FF00101FDF760FE46F60410CF
:10574000C4F201004FF00101FDF758FE4FF00100D7
:10575000FDF79CFD4FF00100FDF772FD4FF00100D9
:10576000FDF748FD07F14007BD4680BD80B400AF9E
:1057700045F25873C2F200034FF4B042CDF2020278
:105780001A6040F21423C2F200034FF001021A60C3
:10579000BD4680BC704700BF80B485B000AF0346F3
:1057A000FB804FF00003FB604FF00003FB600CE058
:1057B00045F25873C2F200031A68FB68D318FA88DE
:1057C0001A80FB6803F10203FB60FA6845F2FF737D
:1057D000C0F202039A42EBD907F11407BD4680BC20
:1057E000704700BF80B582B000AF0346FB7140F246
:1057F0001423C2F200031B68002B08D1FB7946F684
:105800008400C4F201001946FDF714FE07E0FB799D
:1058100046F60410C4F201001946FDF70BFE4FF0E6
:105820000100FDF733FD07F10807BD4680BD00BF4D
:1058300080B483B000AF02460B46FA80BB8040F2D2
:105840009413C2F20003FA881A8040F29613C2F24F
:105850000003BA881A8040F29613C2F200031B8834
:105860001A4613464FEA03139B1A4FEA03131A46CC
:1058700040F29413C2F200031B88D3184FEA43038B
:105880001A4645F25873C2F200031B68D21840F260
:105890009813C2F200031A6007F10C07BD4680BCE2
:1058A000704700BF80B483B000AF0346FB8040F276
:1058B0009813C2F200031B68FA881A8040F2603322
:1058C000C2F200031B78002B38D140F29413C2F2CD
:1058D00000031B8803F101039AB240F29413C2F251
:1058E00000031A8040F29413C2F200031B88EF2BCE
:1058F0005CD940F29413C2F200034FF000021A8008
:1059000040F29613C2F200031B8803F101039AB21E
:1059100040F29613C2F200031A8040F29613C2F2CC
:1059200000031A8840F23F139A423FD940F296137F
:10593000C2F200034FF000021A8037E040F29613E3
:10594000C2F200031B8803F101039AB240F29613DE
:10595000C2F200031A8040F29613C2F200031A88C2
:1059600040F23F139A4221D940F29613C2F200034B
:105970004FF000021A8040F29413C2F200031B8819
:1059800003F101039AB240F29413C2F200031A80A9
:1059900040F29413C2F200031B88EF2B06D940F2A9
:1059A0009413C2F200034FF000021A8040F29613E3
:1059B000C2F200031B881A4613464FEA03139B1AD0
:1059C0004FEA03131A4640F29413C2F200031B88F5
:1059D000D3184FEA43031A4645F25873C2F2000344
:1059E0001B68D21840F29813C2F200031A6007F144
:1059F0000C07BD4680BC704780B582B000AF4FF049
:105A000008004FF00101FDF7EFFE4FF400533B603B
:105A10004FF002037B714FF001033B714FF0000325
:105A2000BB714FF00003FB713B464FF44060C4F282
:105A30000200194601F064F94FF004004FF0010133
:105A4000FDF7D2FE4FF004033B604FF002037B7181
:105A50004FF001033B714FF00003BB714FF00003A7
:105A6000FB713B464FF40060C4F20200194601F09E
:105A700047F94FF0010000F065F807F10807BD464F
:105A800080BD00BF80B590B000AF4FF080604FF098
:105A90000101FDF727FF4FF400004FF00101FDF772
:105AA000A3FE00F077FA4FF000037B604FF0000395
:105AB000BB604FF00003FB604FF000033B614FF011
:105AC00000037B634FF00003BB634FF00003FB63F5
:105AD0004FF0C0004FF007014FF00402FDF750FDFA
